{
    "contractName": "GovernedNFT",
    "abi": [
        {
            "inputs": [],
            "stateMutability": "nonpayable",
            "type": "constructor"
        },
        {
            "anonymous": false,
            "inputs": [
                {
                    "indexed": true,
                    "internalType": "address",
                    "name": "account",
                    "type": "address"
                },
                {
                    "indexed": true,
                    "internalType": "address",
                    "name": "operator",
                    "type": "address"
                },
                {
                    "indexed": false,
                    "internalType": "bool",
                    "name": "approved",
                    "type": "bool"
                }
            ],
            "name": "ApprovalForAll",
            "type": "event"
        },
        {
            "anonymous": false,
            "inputs": [
                {
                    "indexed": true,
                    "internalType": "address",
                    "name": "operator",
                    "type": "address"
                },
                {
                    "indexed": false,
                    "internalType": "uint256",
                    "name": "until",
                    "type": "uint256"
                }
            ],
            "name": "Exclusivity",
            "type": "event"
        },
        {
            "anonymous": false,
            "inputs": [
                {
                    "indexed": true,
                    "internalType": "address",
                    "name": "who",
                    "type": "address"
                },
                {
                    "indexed": true,
                    "internalType": "uint256",
                    "name": "tokenId",
                    "type": "uint256"
                }
            ],
            "name": "HasVoted",
            "type": "event"
        },
        {
            "anonymous": false,
            "inputs": [
                {
                    "indexed": true,
                    "internalType": "address",
                    "name": "previousOwner",
                    "type": "address"
                },
                {
                    "indexed": true,
                    "internalType": "address",
                    "name": "newOwner",
                    "type": "address"
                }
            ],
            "name": "OwnershipTransferred",
            "type": "event"
        },
        {
            "anonymous": false,
            "inputs": [
                {
                    "indexed": false,
                    "internalType": "address",
                    "name": "account",
                    "type": "address"
                }
            ],
            "name": "Paused",
            "type": "event"
        },
        {
            "anonymous": false,
            "inputs": [
                {
                    "indexed": false,
                    "internalType": "address",
                    "name": "",
                    "type": "address"
                },
                {
                    "indexed": false,
                    "internalType": "uint256",
                    "name": "",
                    "type": "uint256"
                }
            ],
            "name": "ReceivedEth",
            "type": "event"
        },
        {
            "anonymous": false,
            "inputs": [
                {
                    "indexed": true,
                    "internalType": "uint256",
                    "name": "tokenId",
                    "type": "uint256"
                },
                {
                    "indexed": true,
                    "internalType": "bytes32",
                    "name": "buyer",
                    "type": "bytes32"
                },
                {
                    "indexed": false,
                    "internalType": "uint128",
                    "name": "price",
                    "type": "uint128"
                },
                {
                    "indexed": false,
                    "internalType": "uint8",
                    "name": "decimals",
                    "type": "uint8"
                },
                {
                    "indexed": false,
                    "internalType": "bytes3",
                    "name": "currency",
                    "type": "bytes3"
                },
                {
                    "indexed": false,
                    "internalType": "bytes1",
                    "name": "network",
                    "type": "bytes1"
                },
                {
                    "indexed": false,
                    "internalType": "bytes1",
                    "name": "status",
                    "type": "bytes1"
                }
            ],
            "name": "Sale",
            "type": "event"
        },
        {
            "anonymous": false,
            "inputs": [
                {
                    "indexed": true,
                    "internalType": "uint256",
                    "name": "tokenId",
                    "type": "uint256"
                },
                {
                    "indexed": true,
                    "internalType": "bytes32",
                    "name": "buyer",
                    "type": "bytes32"
                },
                {
                    "indexed": false,
                    "internalType": "bytes1",
                    "name": "status",
                    "type": "bytes1"
                }
            ],
            "name": "SaleUpdate",
            "type": "event"
        },
        {
            "anonymous": false,
            "inputs": [
                {
                    "indexed": true,
                    "internalType": "address",
                    "name": "operator",
                    "type": "address"
                },
                {
                    "indexed": true,
                    "internalType": "address",
                    "name": "from",
                    "type": "address"
                },
                {
                    "indexed": true,
                    "internalType": "address",
                    "name": "to",
                    "type": "address"
                },
                {
                    "indexed": false,
                    "internalType": "uint256[]",
                    "name": "ids",
                    "type": "uint256[]"
                },
                {
                    "indexed": false,
                    "internalType": "uint256[]",
                    "name": "values",
                    "type": "uint256[]"
                }
            ],
            "name": "TransferBatch",
            "type": "event"
        },
        {
            "anonymous": false,
            "inputs": [
                {
                    "indexed": true,
                    "internalType": "address",
                    "name": "operator",
                    "type": "address"
                },
                {
                    "indexed": true,
                    "internalType": "address",
                    "name": "from",
                    "type": "address"
                },
                {
                    "indexed": true,
                    "internalType": "address",
                    "name": "to",
                    "type": "address"
                },
                {
                    "indexed": false,
                    "internalType": "uint256",
                    "name": "id",
                    "type": "uint256"
                },
                {
                    "indexed": false,
                    "internalType": "uint256",
                    "name": "value",
                    "type": "uint256"
                }
            ],
            "name": "TransferSingle",
            "type": "event"
        },
        {
            "anonymous": false,
            "inputs": [
                {
                    "indexed": false,
                    "internalType": "string",
                    "name": "value",
                    "type": "string"
                },
                {
                    "indexed": true,
                    "internalType": "uint256",
                    "name": "id",
                    "type": "uint256"
                }
            ],
            "name": "URI",
            "type": "event"
        },
        {
            "anonymous": false,
            "inputs": [
                {
                    "indexed": false,
                    "internalType": "address",
                    "name": "account",
                    "type": "address"
                }
            ],
            "name": "Unpaused",
            "type": "event"
        },
        {
            "anonymous": false,
            "inputs": [
                {
                    "indexed": true,
                    "internalType": "address",
                    "name": "who",
                    "type": "address"
                },
                {
                    "indexed": true,
                    "internalType": "uint256",
                    "name": "voteId",
                    "type": "uint256"
                }
            ],
            "name": "VoteCreated",
            "type": "event"
        },
        {
            "inputs": [
                {
                    "internalType": "address",
                    "name": "account",
                    "type": "address"
                },
                {
                    "internalType": "uint256",
                    "name": "id",
                    "type": "uint256"
                }
            ],
            "name": "balanceOf",
            "outputs": [
                {
                    "internalType": "uint256",
                    "name": "",
                    "type": "uint256"
                }
            ],
            "stateMutability": "view",
            "type": "function"
        },
        {
            "inputs": [
                {
                    "internalType": "address[]",
                    "name": "accounts",
                    "type": "address[]"
                },
                {
                    "internalType": "uint256[]",
                    "name": "ids",
                    "type": "uint256[]"
                }
            ],
            "name": "balanceOfBatch",
            "outputs": [
                {
                    "internalType": "uint256[]",
                    "name": "",
                    "type": "uint256[]"
                }
            ],
            "stateMutability": "view",
            "type": "function"
        },
        {
            "inputs": [
                {
                    "internalType": "uint128",
                    "name": "voteId",
                    "type": "uint128"
                }
            ],
            "name": "getBallots",
            "outputs": [
                {
                    "components": [
                        {
                            "internalType": "address",
                            "name": "from",
                            "type": "address"
                        },
                        {
                            "internalType": "uint256",
                            "name": "tokenId",
                            "type": "uint256"
                        },
                        {
                            "internalType": "bytes16",
                            "name": "data",
                            "type": "bytes16"
                        },
                        {
                            "internalType": "bytes",
                            "name": "signature",
                            "type": "bytes"
                        },
                        {
                            "internalType": "uint256",
                            "name": "timestamp",
                            "type": "uint256"
                        }
                    ],
                    "internalType": "struct GovernedNFT.Ballot[]",
                    "name": "",
                    "type": "tuple[]"
                }
            ],
            "stateMutability": "view",
            "type": "function"
        },
        {
            "inputs": [],
            "name": "getDefaultURi",
            "outputs": [
                {
                    "internalType": "string",
                    "name": "",
                    "type": "string"
                }
            ],
            "stateMutability": "view",
            "type": "function"
        },
        {
            "inputs": [],
            "name": "getExclusivityForAll",
            "outputs": [
                {
                    "internalType": "address",
                    "name": "",
                    "type": "address"
                },
                {
                    "internalType": "uint256",
                    "name": "",
                    "type": "uint256"
                }
            ],
            "stateMutability": "view",
            "type": "function"
        },
        {
            "inputs": [
                {
                    "internalType": "uint256",
                    "name": "tokenId_",
                    "type": "uint256"
                }
            ],
            "name": "getSale",
            "outputs": [
                {
                    "components": [
                        {
                            "internalType": "bytes32",
                            "name": "buyer",
                            "type": "bytes32"
                        },
                        {
                            "internalType": "uint128",
                            "name": "price",
                            "type": "uint128"
                        },
                        {
                            "internalType": "uint8",
                            "name": "decimals",
                            "type": "uint8"
                        },
                        {
                            "internalType": "bytes3",
                            "name": "currency",
                            "type": "bytes3"
                        },
                        {
                            "internalType": "bytes1",
                            "name": "network",
                            "type": "bytes1"
                        },
                        {
                            "internalType": "bytes1",
                            "name": "status",
                            "type": "bytes1"
                        }
                    ],
                    "internalType": "struct GovernedNFT.SaleRecord",
                    "name": "",
                    "type": "tuple"
                }
            ],
            "stateMutability": "view",
            "type": "function"
        },
        {
            "inputs": [],
            "name": "getVote",
            "outputs": [
                {
                    "internalType": "uint128",
                    "name": "",
                    "type": "uint128"
                },
                {
                    "components": [
                        {
                            "internalType": "uint256",
                            "name": "startDate",
                            "type": "uint256"
                        },
                        {
                            "internalType": "uint256",
                            "name": "endDate",
                            "type": "uint256"
                        },
                        {
                            "internalType": "string",
                            "name": "cid",
                            "type": "string"
                        },
                        {
                            "internalType": "uint256",
                            "name": "hash",
                            "type": "uint256"
                        }
                    ],
                    "internalType": "struct GovernedNFT.Vote",
                    "name": "",
                    "type": "tuple"
                }
            ],
            "stateMutability": "view",
            "type": "function"
        },
        {
            "inputs": [
                {
                    "internalType": "uint128",
                    "name": "voteId",
                    "type": "uint128"
                }
            ],
            "name": "getVoteById",
            "outputs": [
                {
                    "internalType": "uint128",
                    "name": "",
                    "type": "uint128"
                },
                {
                    "components": [
                        {
                            "internalType": "uint256",
                            "name": "startDate",
                            "type": "uint256"
                        },
                        {
                            "internalType": "uint256",
                            "name": "endDate",
                            "type": "uint256"
                        },
                        {
                            "internalType": "string",
                            "name": "cid",
                            "type": "string"
                        },
                        {
                            "internalType": "uint256",
                            "name": "hash",
                            "type": "uint256"
                        }
                    ],
                    "internalType": "struct GovernedNFT.Vote",
                    "name": "",
                    "type": "tuple"
                }
            ],
            "stateMutability": "view",
            "type": "function"
        },
        {
            "inputs": [
                {
                    "internalType": "address",
                    "name": "who",
                    "type": "address"
                },
                {
                    "internalType": "uint128",
                    "name": "voteId",
                    "type": "uint128"
                }
            ],
            "name": "hasVoted",
            "outputs": [
                {
                    "internalType": "bool",
                    "name": "",
                    "type": "bool"
                }
            ],
            "stateMutability": "view",
            "type": "function"
        },
        {
            "inputs": [
                {
                    "internalType": "address",
                    "name": "who",
                    "type": "address"
                }
            ],
            "name": "isAllowed",
            "outputs": [
                {
                    "internalType": "bool",
                    "name": "",
                    "type": "bool"
                }
            ],
            "stateMutability": "view",
            "type": "function"
        },
        {
            "inputs": [
                {
                    "internalType": "address",
                    "name": "account",
                    "type": "address"
                },
                {
                    "internalType": "address",
                    "name": "operator",
                    "type": "address"
                }
            ],
            "name": "isApprovedForAll",
            "outputs": [
                {
                    "internalType": "bool",
                    "name": "",
                    "type": "bool"
                }
            ],
            "stateMutability": "view",
            "type": "function"
        },
        {
            "inputs": [
                {
                    "internalType": "uint256",
                    "name": "tokenId_",
                    "type": "uint256"
                }
            ],
            "name": "isPledged",
            "outputs": [
                {
                    "internalType": "bool",
                    "name": "",
                    "type": "bool"
                }
            ],
            "stateMutability": "view",
            "type": "function"
        },
        {
            "inputs": [
                {
                    "internalType": "uint256",
                    "name": "id",
                    "type": "uint256"
                },
                {
                    "internalType": "uint256",
                    "name": "amount",
                    "type": "uint256"
                },
                {
                    "internalType": "bytes",
                    "name": "data",
                    "type": "bytes"
                }
            ],
            "name": "mint",
            "outputs": [],
            "stateMutability": "nonpayable",
            "type": "function"
        },
        {
            "inputs": [
                {
                    "internalType": "uint256[]",
                    "name": "ids",
                    "type": "uint256[]"
                },
                {
                    "internalType": "uint256[]",
                    "name": "amounts",
                    "type": "uint256[]"
                },
                {
                    "internalType": "bytes",
                    "name": "data",
                    "type": "bytes"
                }
            ],
            "name": "mintBatch",
            "outputs": [],
            "stateMutability": "nonpayable",
            "type": "function"
        },
        {
            "inputs": [
                {
                    "internalType": "uint256",
                    "name": "tokenId",
                    "type": "uint256"
                }
            ],
            "name": "numberOfPieces",
            "outputs": [
                {
                    "internalType": "uint256",
                    "name": "",
                    "type": "uint256"
                }
            ],
            "stateMutability": "view",
            "type": "function"
        },
        {
            "inputs": [],
            "name": "owner",
            "outputs": [
                {
                    "internalType": "address",
                    "name": "",
                    "type": "address"
                }
            ],
            "stateMutability": "view",
            "type": "function"
        },
        {
            "inputs": [],
            "name": "pause",
            "outputs": [],
            "stateMutability": "nonpayable",
            "type": "function"
        },
        {
            "inputs": [],
            "name": "paused",
            "outputs": [
                {
                    "internalType": "bool",
                    "name": "",
                    "type": "bool"
                }
            ],
            "stateMutability": "view",
            "type": "function"
        },
        {
            "inputs": [
                {
                    "internalType": "uint256",
                    "name": "tokenId_",
                    "type": "uint256"
                }
            ],
            "name": "removePledge",
            "outputs": [],
            "stateMutability": "nonpayable",
            "type": "function"
        },
        {
            "inputs": [],
            "name": "renounceOwnership",
            "outputs": [],
            "stateMutability": "nonpayable",
            "type": "function"
        },
        {
            "inputs": [
                {
                    "internalType": "address",
                    "name": "voter",
                    "type": "address"
                }
            ],
            "name": "revoke",
            "outputs": [],
            "stateMutability": "nonpayable",
            "type": "function"
        },
        {
            "inputs": [
                {
                    "internalType": "uint256",
                    "name": "_tokenId",
                    "type": "uint256"
                },
                {
                    "internalType": "uint256",
                    "name": "_salePrice",
                    "type": "uint256"
                }
            ],
            "name": "royaltyInfo",
            "outputs": [
                {
                    "internalType": "address",
                    "name": "",
                    "type": "address"
                },
                {
                    "internalType": "uint256",
                    "name": "",
                    "type": "uint256"
                }
            ],
            "stateMutability": "view",
            "type": "function"
        },
        {
            "inputs": [
                {
                    "internalType": "address",
                    "name": "from",
                    "type": "address"
                },
                {
                    "internalType": "address",
                    "name": "to",
                    "type": "address"
                },
                {
                    "internalType": "uint256[]",
                    "name": "ids",
                    "type": "uint256[]"
                },
                {
                    "internalType": "uint256[]",
                    "name": "amounts",
                    "type": "uint256[]"
                },
                {
                    "internalType": "bytes",
                    "name": "data",
                    "type": "bytes"
                }
            ],
            "name": "safeBatchTransferFrom",
            "outputs": [],
            "stateMutability": "nonpayable",
            "type": "function"
        },
        {
            "inputs": [
                {
                    "internalType": "address",
                    "name": "from",
                    "type": "address"
                },
                {
                    "internalType": "address",
                    "name": "to",
                    "type": "address"
                },
                {
                    "internalType": "uint256",
                    "name": "id",
                    "type": "uint256"
                },
                {
                    "internalType": "uint256",
                    "name": "amount",
                    "type": "uint256"
                },
                {
                    "internalType": "bytes",
                    "name": "data",
                    "type": "bytes"
                }
            ],
            "name": "safeTransferFrom",
            "outputs": [],
            "stateMutability": "nonpayable",
            "type": "function"
        },
        {
            "inputs": [
                {
                    "internalType": "uint256",
                    "name": "tokenId_",
                    "type": "uint256"
                },
                {
                    "components": [
                        {
                            "internalType": "bytes32",
                            "name": "buyer",
                            "type": "bytes32"
                        },
                        {
                            "internalType": "uint128",
                            "name": "price",
                            "type": "uint128"
                        },
                        {
                            "internalType": "uint8",
                            "name": "decimals",
                            "type": "uint8"
                        },
                        {
                            "internalType": "bytes3",
                            "name": "currency",
                            "type": "bytes3"
                        },
                        {
                            "internalType": "bytes1",
                            "name": "network",
                            "type": "bytes1"
                        },
                        {
                            "internalType": "bytes1",
                            "name": "status",
                            "type": "bytes1"
                        }
                    ],
                    "internalType": "struct GovernedNFT.SaleRecord",
                    "name": "sale_",
                    "type": "tuple"
                }
            ],
            "name": "saleRecord",
            "outputs": [],
            "stateMutability": "nonpayable",
            "type": "function"
        },
        {
            "inputs": [
                {
                    "internalType": "uint256",
                    "name": "tokenId_",
                    "type": "uint256"
                },
                {
                    "internalType": "bytes1",
                    "name": "status_",
                    "type": "bytes1"
                }
            ],
            "name": "saleUpdate",
            "outputs": [],
            "stateMutability": "nonpayable",
            "type": "function"
        },
        {
            "inputs": [
                {
                    "internalType": "address",
                    "name": "operator",
                    "type": "address"
                },
                {
                    "internalType": "bool",
                    "name": "approved",
                    "type": "bool"
                }
            ],
            "name": "setApprovalForAll",
            "outputs": [],
            "stateMutability": "nonpayable",
            "type": "function"
        },
        {
            "inputs": [
                {
                    "internalType": "string",
                    "name": "uri_",
                    "type": "string"
                }
            ],
            "name": "setDefaultURI",
            "outputs": [],
            "stateMutability": "nonpayable",
            "type": "function"
        },
        {
            "inputs": [
                {
                    "internalType": "address",
                    "name": "operator",
                    "type": "address"
                },
                {
                    "internalType": "uint256",
                    "name": "until",
                    "type": "uint256"
                }
            ],
            "name": "setExclusivityForAll",
            "outputs": [],
            "stateMutability": "nonpayable",
            "type": "function"
        },
        {
            "inputs": [
                {
                    "internalType": "uint256",
                    "name": "tokenId_",
                    "type": "uint256"
                },
                {
                    "internalType": "address",
                    "name": "creditor",
                    "type": "address"
                }
            ],
            "name": "setPlege",
            "outputs": [],
            "stateMutability": "nonpayable",
            "type": "function"
        },
        {
            "inputs": [
                {
                    "internalType": "uint256",
                    "name": "tokenId_",
                    "type": "uint256"
                },
                {
                    "internalType": "string",
                    "name": "uri_",
                    "type": "string"
                }
            ],
            "name": "setURI",
            "outputs": [],
            "stateMutability": "nonpayable",
            "type": "function"
        },
        {
            "inputs": [
                {
                    "internalType": "uint128",
                    "name": "voteId",
                    "type": "uint128"
                },
                {
                    "internalType": "uint256",
                    "name": "start",
                    "type": "uint256"
                },
                {
                    "internalType": "uint256",
                    "name": "end",
                    "type": "uint256"
                },
                {
                    "internalType": "string",
                    "name": "cid",
                    "type": "string"
                },
                {
                    "internalType": "uint256",
                    "name": "hash",
                    "type": "uint256"
                }
            ],
            "name": "setVote",
            "outputs": [],
            "stateMutability": "nonpayable",
            "type": "function"
        },
        {
            "inputs": [
                {
                    "internalType": "bytes4",
                    "name": "interfaceId",
                    "type": "bytes4"
                }
            ],
            "name": "supportsInterface",
            "outputs": [
                {
                    "internalType": "bool",
                    "name": "",
                    "type": "bool"
                }
            ],
            "stateMutability": "view",
            "type": "function"
        },
        {
            "inputs": [],
            "name": "tokensIssued",
            "outputs": [
                {
                    "internalType": "uint256[]",
                    "name": "",
                    "type": "uint256[]"
                }
            ],
            "stateMutability": "view",
            "type": "function"
        },
        {
            "inputs": [
                {
                    "internalType": "address",
                    "name": "owner",
                    "type": "address"
                }
            ],
            "name": "tokensOwned",
            "outputs": [
                {
                    "internalType": "uint256[]",
                    "name": "",
                    "type": "uint256[]"
                }
            ],
            "stateMutability": "view",
            "type": "function"
        },
        {
            "inputs": [
                {
                    "internalType": "address",
                    "name": "newOwner",
                    "type": "address"
                }
            ],
            "name": "transferOwnership",
            "outputs": [],
            "stateMutability": "nonpayable",
            "type": "function"
        },
        {
            "inputs": [],
            "name": "unpause",
            "outputs": [],
            "stateMutability": "nonpayable",
            "type": "function"
        },
        {
            "inputs": [
                {
                    "internalType": "uint256",
                    "name": "tokenId_",
                    "type": "uint256"
                }
            ],
            "name": "uri",
            "outputs": [
                {
                    "internalType": "string",
                    "name": "",
                    "type": "string"
                }
            ],
            "stateMutability": "view",
            "type": "function"
        },
        {
            "inputs": [
                {
                    "components": [
                        {
                            "internalType": "address",
                            "name": "from",
                            "type": "address"
                        },
                        {
                            "internalType": "uint128",
                            "name": "voteId",
                            "type": "uint128"
                        },
                        {
                            "internalType": "bytes",
                            "name": "data",
                            "type": "bytes"
                        }
                    ],
                    "internalType": "struct GovernedNFT.BallotMessage",
                    "name": "ballot",
                    "type": "tuple"
                },
                {
                    "internalType": "bytes",
                    "name": "signature",
                    "type": "bytes"
                }
            ],
            "name": "verify",
            "outputs": [
                {
                    "internalType": "bool",
                    "name": "",
                    "type": "bool"
                }
            ],
            "stateMutability": "view",
            "type": "function"
        },
        {
            "inputs": [
                {
                    "components": [
                        {
                            "internalType": "address",
                            "name": "from",
                            "type": "address"
                        },
                        {
                            "internalType": "uint128",
                            "name": "voteId",
                            "type": "uint128"
                        },
                        {
                            "internalType": "bytes",
                            "name": "data",
                            "type": "bytes"
                        }
                    ],
                    "internalType": "struct GovernedNFT.BallotMessage",
                    "name": "ballot",
                    "type": "tuple"
                },
                {
                    "internalType": "bytes",
                    "name": "signature",
                    "type": "bytes"
                },
                {
                    "internalType": "uint256",
                    "name": "id",
                    "type": "uint256"
                }
            ],
            "name": "vote",
            "outputs": [],
            "stateMutability": "nonpayable",
            "type": "function"
        },
        {
            "inputs": [],
            "name": "withdraw",
            "outputs": [],
            "stateMutability": "payable",
            "type": "function"
        },
        {
            "stateMutability": "payable",
            "type": "receive"
        }
    ],
    "bytecode": "6101406040523480156200001257600080fd5b50604051806020016040528060008152506040518060400160405280600b81526020016a11dbdd995c9b995913919560aa1b815250604051806040016040528060058152602001640312e302e360dc1b8152506200007f620000796200013d60201b60201c565b62000159565b6000805460ff60a01b19169055815160209283012081519183019190912060e08290526101008190524660a0818152604080517f8b73c3c69bb8fe3d512ecc4cf759cc79239f7b179b0ffacaa9a75d522b39400f818801819052818301969096526060810194909452608080850193909352308483018190528151808603909301835260c094850190915281519190950120905291909152610120526200012681620001a9565b50600780546001600160801b03191690556200038a565b600062000154620001bb60201b620022021760201c565b905090565b600080546001600160a01b038381166001600160a01b0319831681178455604051919092169283917f8be0079c531659141344cd1fd0a4f28419497f9722a3daafe3b4186f6b6457e09190a35050565b6003620001b78282620002be565b5050565b60003033036200021357600080368080601f0160208091040260200160405190810160405280939291908181526020018383808284376000920191909152505050503601516001600160a01b03169150620002169050565b50335b90565b634e487b7160e01b600052604160045260246000fd5b600181811c908216806200024457607f821691505b6020821081036200026557634e487b7160e01b600052602260045260246000fd5b50919050565b601f821115620002b957600081815260208120601f850160051c81016020861015620002945750805b601f850160051c820191505b81811015620002b557828155600101620002a0565b5050505b505050565b81516001600160401b03811115620002da57620002da62000219565b620002f281620002eb84546200022f565b846200026b565b602080601f8311600181146200032a5760008415620003115750858301515b600019600386901b1c1916600185901b178555620002b5565b600085815260208120601f198616915b828110156200035b578886015182559484019460019091019084016200033a565b50858210156200037a5787850151600019600388901b60f8161c191681555b5050505050600190811b01905550565b60805160a05160c05160e0516101005161012051614a2e620003da6000396000613144015260006131930152600061316e015260006130c7015260006130f10152600061311b0152614a2e6000f3fe6080604052600436106102495760003560e01c806374a8f10311610139578063c1b02179116100b6578063e985e9c51161007a578063e985e9c514610802578063ecd1617a1461084b578063f02425e81461086b578063f242432a14610880578063f2fde38b146108a0578063f61e5dae146108c057600080fd5b8063c1b02179146106e8578063c1fc8dbb14610708578063cd1ce09114610735578063d8f6d59614610755578063da1b9e08146107e257600080fd5b80639a87c691116100fd5780639a87c6911461062e578063a22cb4651461064e578063a9b5a0581461066e578063babcc5391461068e578063bb4351e8146106c857600080fd5b806374a8f1031461059c5780637c48bbda146105bc5780638456cb59146105d1578063862440e2146105e65780638da5cb5b1461060657600080fd5b80633ccfd60b116101c75780634ec5d27e1161018b5780634ec5d27e146104fb5780635c975abb1461051b57806369d2fabe1461053a5780636c5a45421461055a578063715018a61461058757600080fd5b80633ccfd60b146104625780633f4ba83a1461046a5780634219701b1461047f578063429e2329146104a35780634e1273f4146104db57600080fd5b806314ce65381161020e57806314ce65381461036257806321cda790146103825780632a55205a146103af5780632eb2c2d6146103ee57806338c42ae41461040e57600080fd5b8062fdd58e1461028d57806301ffc9a7146102c05780630242f351146102f057806308dc9f42146103135780630e89341c1461033557600080fd5b3661028857604080513381523460208201527f52a6cdf67c40ce333b3d846e4e143db87f71dd7935612a4cafcf6ba76047ca1f910160405180910390a1005b600080fd5b34801561029957600080fd5b506102ad6102a8366004613855565b6108e0565b6040519081526020015b60405180910390f35b3480156102cc57600080fd5b506102e06102db366004613895565b61097b565b60405190151581526020016102b7565b3480156102fc57600080fd5b50610305610986565b6040516102b79291906138ff565b34801561031f57600080fd5b5061033361032e366004613a09565b610a97565b005b34801561034157600080fd5b50610355610350366004613a58565b610aed565b6040516102b79190613a71565b34801561036e57600080fd5b506102e061037d366004613add565b610bbc565b34801561038e57600080fd5b506103a261039d366004613b45565b61105a565b6040516102b79190613b9b565b3480156103bb57600080fd5b506103cf6103ca366004613bae565b61107e565b604080516001600160a01b0390931683526020830191909152016102b7565b3480156103fa57600080fd5b50610333610409366004613c64565b61112c565b34801561041a57600080fd5b506102e0610429366004613d22565b6001600160a01b03821660009081526006602090815260408083206001600160801b038516845260010190915290205460ff1692915050565b61033361118a565b34801561047657600080fd5b506103336111c1565b34801561048b57600080fd5b506103cf6010546011546001600160a01b0390911691565b3480156104af57600080fd5b506102e06104be366004613a58565b6000908152601260205260409020546001600160a01b0316151590565b3480156104e757600080fd5b506103a26104f6366004613d59565b6111d3565b34801561050757600080fd5b50610333610516366004613e39565b6112fc565b34801561052757600080fd5b50600054600160a01b900460ff166102e0565b34801561054657600080fd5b50610333610555366004613e5e565b6113aa565b34801561056657600080fd5b506102ad610575366004613a58565b6000908152600e602052604090205490565b34801561059357600080fd5b50610333611647565b3480156105a857600080fd5b506103336105b7366004613b45565b611659565b3480156105c857600080fd5b506103a2611685565b3480156105dd57600080fd5b506103336116dd565b3480156105f257600080fd5b50610333610601366004613ecd565b6116ed565b34801561061257600080fd5b506000546040516001600160a01b0390911681526020016102b7565b34801561063a57600080fd5b50610333610649366004613855565b611705565b34801561065a57600080fd5b50610333610669366004613f09565b611784565b34801561067a57600080fd5b50610333610689366004613a58565b61179a565b34801561069a57600080fd5b506102e06106a9366004613b45565b6001600160a01b031660009081526006602052604090205460ff161590565b3480156106d457600080fd5b506103336106e3366004613f3a565b6118a4565b3480156106f457600080fd5b50610333610703366004613fb7565b611934565b34801561071457600080fd5b50610728610723366004614021565b611b4d565b6040516102b7919061403e565b34801561074157600080fd5b50610305610750366004614021565b611c96565b34801561076157600080fd5b50610775610770366004613a58565b611db0565b6040516102b79190815181526020808301516001600160801b03169082015260408083015160ff16908201526060808301516001600160e81b031916908201526080808301516001600160f81b03199081169183019190915260a092830151169181019190915260c00190565b3480156107ee57600080fd5b506103336107fd3660046140eb565b611eaf565b34801561080e57600080fd5b506102e061081d366004614127565b6001600160a01b03918216600090815260026020908152604080832093909416825291909152205460ff1690565b34801561085757600080fd5b5061033361086636600461415a565b611ebb565b34801561087757600080fd5b50610355611fd7565b34801561088c57600080fd5b5061033361089b366004614192565b612060565b3480156108ac57600080fd5b506103336108bb366004613b45565b6120b7565b3480156108cc57600080fd5b506103336108db3660046141f6565b61212d565b60006001600160a01b0383166109505760405162461bcd60e51b815260206004820152602a60248201527f455243313135353a2061646472657373207a65726f206973206e6f742061207660448201526930b634b21037bbb732b960b11b60648201526084015b60405180910390fd5b5060008181526001602090815260408083206001600160a01b03861684529091529020545b92915050565b60006109758261225e565b60006109b36040518060800160405280600081526020016000815260200160608152602001600081525090565b6007546001600160801b0316600081815260086020908152604091829020825160808101845281548152600182015492810192909252600281018054919384929084019190610a0190614219565b80601f0160208091040260200160405190810160405280929190818152602001828054610a2d90614219565b8015610a7a5780601f10610a4f57610100808354040283529160200191610a7a565b820191906000526020600020905b815481529060010190602001808311610a5d57829003601f168201915b505050505081526020016003820154815250509050915091509091565b610a9f612283565b6000838152600e602052604090205415610acb5760405162461bcd60e51b81526004016109479061424d565b610ae8610ae06000546001600160a01b031690565b8484846122fc565b505050565b6000818152600b60205260409020805460609190610b0a90614219565b159050610baf576000828152600b602052604090208054610b2a90614219565b80601f0160208091040260200160405190810160405280929190818152602001828054610b5690614219565b8015610ba35780601f10610b7857610100808354040283529160200191610ba3565b820191906000526020600020905b815481529060010190602001808311610b8657829003601f168201915b50505050509050919050565b600c8054610b2a90614219565b600080600881610bd26040880160208901614021565b6001600160801b03166001600160801b031681526020019081526020016000206040518060800160405290816000820154815260200160018201548152602001600282018054610c2190614219565b80601f0160208091040260200160405190810160405280929190818152602001828054610c4d90614219565b8015610c9a5780601f10610c6f57610100808354040283529160200191610c9a565b820191906000526020600020905b815481529060010190602001808311610c7d57829003601f168201915b5050505050815260200160038201548152505090508060000151600003610d135760405162461bcd60e51b815260206004820152602760248201527f476f7665726e65644e46543a207468697320766f7465496420646f6573206e6f6044820152661d08195e1a5cdd60ca1b6064820152608401610947565b60066000610d246020880188613b45565b6001600160a01b0316815260208101919091526040016000205460ff1615610daa5760405162461bcd60e51b815260206004820152603360248201527f476f7665726e65644e46543a207468697320696e646976696475616c206973206044820152726e6f7420616c6c6f77656420746f20766f746560681b6064820152608401610947565b60066000610dbb6020880188613b45565b6001600160a01b03166001600160a01b031681526020019081526020016000206001016000866020016020810190610df39190614021565b6001600160801b0316815260208101919091526040016000205460ff1615610e745760405162461bcd60e51b815260206004820152602e60248201527f476f7665726e65644e46543a207468697320696e646976696475616c2068617360448201526d08185b1c9958591e481d9bdd195960921b6064820152608401610947565b80514211610ed35760405162461bcd60e51b815260206004820152602660248201527f476f7665726e65644e46543a207468697320766f7465206973206e6f742079656044820152653a1037b832b760d11b6064820152608401610947565b80602001514210610f395760405162461bcd60e51b815260206004820152602a60248201527f476f7665726e65644e46543a207468697320766f7465206973206e6f74206f70604482015269656e20616e796d6f726560b01b6064820152608401610947565b600061103485858080601f01602080910402602001604051908101604052809392919081815260200183838082843760009201919091525061102e92507f9fa823d86348b9edce249274f703fc4b6026142167ffe72cd90a5ca74827fa979150610fa8905060208b018b613b45565b610fb860408c0160208d01614021565b610fc560408d018d61429a565b604051610fd39291906142e0565b604051908190038120611013949392916020019384526001600160a01b039290921660208401526001600160801b03166040830152606082015260800190565b60405160208183030381529060405280519060200120612401565b9061244f565b90506110436020870187613b45565b6001600160a01b0391821691161495945050505050565b6001600160a01b0381166000908152600d602052604090206060906109759061246b565b60008281526005602090815260408083208151808301909252546001600160a01b038116808352600160a01b9091046001600160601b03169282019290925282916110f35750604080518082019091526004546001600160a01b0381168252600160a01b90046001600160601b031660208201525b602081015160009061271090611112906001600160601b031687614306565b61111c919061431d565b91519350909150505b9250929050565b6111346124c6565b6001600160a01b0316856001600160a01b0316148061115a575061115a8561081d6124c6565b6111765760405162461bcd60e51b81526004016109479061433f565b61118385858585856124d5565b5050505050565b611192612283565b60405133904780156108fc02916000818181858888f193505050501580156111be573d6000803e3d6000fd5b50565b6111c9612283565b6111d161269b565b565b606081518351146112385760405162461bcd60e51b815260206004820152602960248201527f455243313135353a206163636f756e747320616e6420696473206c656e677468604482015268040dad2e6dac2e8c6d60bb1b6064820152608401610947565b600083516001600160401b0381111561125357611253613954565b60405190808252806020026020018201604052801561127c578160200160208202803683370190505b50905060005b84518110156112f4576112c78582815181106112a0576112a061438e565b60200260200101518583815181106112ba576112ba61438e565b60200260200101516108e0565b8282815181106112d9576112d961438e565b60209081029190910101526112ed816143a4565b9050611282565b509392505050565b6000546001600160a01b031633148061131f57506010546001600160a01b031633145b61133b5760405162461bcd60e51b8152600401610947906143bd565b6000828152600a602090815260409182902060018101805460ff60a81b1916600160a81b60f887901c021790555491516001600160f81b03198416815284917f055ab1e6058a5c223b6a969d1acb726532ffbcf17e0c9c853961409d74260b6d91015b60405180910390a35050565b6113c06113ba6020860186613b45565b826108e0565b6000036113df5760405162461bcd60e51b815260040161094790614400565b6113ea848484610bbc565b6114365760405162461bcd60e51b815260206004820152601960248201527f476f7665726e65644e46543a20696e76616c696420766f7465000000000000006044820152606401610947565b6009600061144a6040870160208801614021565b6001600160801b03166001600160801b031681526020019081526020016000206040518060a001604052808660000160208101906114889190613b45565b6001600160a01b031681526020018381526020018680604001906114ac919061429a565b6114b591614455565b6001600160801b031916815260200185858080601f01602080910402602001604051908101604052809392919081815260200183838082843760009201829052509385525050426020938401525083546001808201865594825290829020835160059092020180546001600160a01b0319166001600160a01b03909216919091178155908201519281019290925560408101516002830180546001600160801b03191660809290921c9190911790556060810151909190600382019061157b90826144cb565b506080919091015160049091015560016006600061159c6020880188613b45565b6001600160a01b03166001600160a01b0316815260200190815260200160002060010160008660200160208101906115d49190614021565b6001600160801b03168152602080820192909252604001600020805460ff191692151592909217909155819061160c90860186613b45565b6001600160a01b03167f9102be182515b5e047eb5e72c098572104d73b31b52b9766d92b745fcf4323b160405160405180910390a350505050565b61164f612283565b6111d160006126f6565b611661612283565b6001600160a01b03166000908152600660205260409020805460ff19166001179055565b6060600f8054806020026020016040519081016040528092919081815260200182805480156116d357602002820191906000526020600020905b8154815260200190600101908083116116bf575b5050505050905090565b6116e5612283565b6111d1612746565b6000828152600b60205260409020610ae882826144cb565b61170d612283565b61172a6117226000546001600160a01b031690565b83600161278a565b6011819055601080546001600160a01b0319166001600160a01b0384169081179091556040518281527f2c4f5092bd94f3258727fe2a7facc03052b20110c7a44c99a1dea390591c30949060200160405180910390a25050565b61179661178f6124c6565b838361278a565b5050565b6000818152601260205260409020546001600160a01b0316806118145760405162461bcd60e51b815260206004820152602c60248201527f476f7665726e65644e46543a207468697320746f6b656e20686173206e6f742060448201526b1899595b881c1b195919d95960a21b6064820152608401610947565b336001600160a01b038216146118855760405162461bcd60e51b815260206004820152603060248201527f476f7665726e65644e46543a207468697320696e646976696475616c2069732060448201526f3737ba103a34329031b932b234ba37b960811b6064820152608401610947565b50600090815260126020526040902080546001600160a01b0319169055565b6118ac612283565b60005b835181101561191657600e60008583815181106118ce576118ce61438e565b60200260200101518152602001908152602001600020546000146119045760405162461bcd60e51b81526004016109479061424d565b8061190e816143a4565b9150506118af565b50610ae861192c6000546001600160a01b031690565b84848461286a565b61193c612283565b6007546001600160801b03908116908616116119cf5760405162461bcd60e51b815260206004820152604660248201527f476f7665726e65644e46543a20746865206e657720766f7465206d757374206860448201527f6176652061206c6172676572206964207468616e207468652070726576696f7560648201526573206f6e657360d01b608482015260a401610947565b838311611a365760405162461bcd60e51b815260206004820152602f60248201527f476f7665726e65644e46543a2074686520656e642063616e6e6f74206265206260448201526e19599bdc99481d1a19481cdd185c9d608a1b6064820152608401610947565b428311611a985760405162461bcd60e51b815260206004820152602a60248201527f476f7665726e65644e46543a2074686520656e642063616e6e6f7420626520696044820152691b881d1a19481c185cdd60b21b6064820152608401610947565b600780546001600160801b0319166001600160801b038716908117909155604080516080810182528681526020808201878152828401878152606084018790526000958652600890925292909320815181559151600183015591516002820190611b0290826144cb565b50606091909101516003909101556040516001600160801b0386169033907fccd4c40116da2cb431ad9853b586e4a4bb304aeda0a5b2dabaaa51da136cf4ad90600090a35050505050565b6001600160801b0381166000908152600960209081526040808320805482518185028101850190935280835260609492939192909184015b82821015611c8b5760008481526020908190206040805160a0810182526005860290920180546001600160a01b03168352600181015493830193909352600283015460801b6001600160801b03191690820152600382018054919291606084019190611bf090614219565b80601f0160208091040260200160405190810160405280929190818152602001828054611c1c90614219565b8015611c695780601f10611c3e57610100808354040283529160200191611c69565b820191906000526020600020905b815481529060010190602001808311611c4c57829003601f168201915b5050505050815260200160048201548152505081526020019060010190611b85565b505050509050919050565b6000611cc36040518060800160405280600081526020016000815260200160608152602001600081525090565b8260086000856001600160801b03166001600160801b03168152602001908152602001600020806040518060800160405290816000820154815260200160018201548152602001600282018054611d1990614219565b80601f0160208091040260200160405190810160405280929190818152602001828054611d4590614219565b8015611d925780601f10611d6757610100808354040283529160200191611d92565b820191906000526020600020905b815481529060010190602001808311611d7557829003601f168201915b50505050508152602001600382015481525050905091509150915091565b6040805160c081018252600080825260208201819052918101829052606081018290526080810182905260a0810182905290546001600160a01b0316331480611e0357506010546001600160a01b031633145b611e1f5760405162461bcd60e51b8152600401610947906143bd565b506000908152600a6020908152604091829020825160c081018452815481526001909101546001600160801b0381169282019290925260ff600160801b830416928101929092526001600160e81b0319600160881b820460e81b1660608301526001600160f81b0319600160a01b820460f890811b82166080850152600160a81b90920490911b1660a082015290565b600c61179682826144cb565b6000546001600160a01b0316331480611ede57506010546001600160a01b031633145b611efa5760405162461bcd60e51b8152600401610947906143bd565b6000828152600a602052604090208190611f1482826145af565b50508035827f4d06adcc78cbf1837adc1d90122283c59fc77d3eef2c4e3eb4a7730f7ae9e4b4611f4a6040850160208601614021565b611f5a606086016040870161465d565b611f6a608087016060880161467a565b611f7a60a0880160808901614697565b611f8a60c0890160a08a01614697565b604080516001600160801b03909616865260ff90941660208601526001600160e81b0319909216928401929092526001600160f81b0319918216606084015216608082015260a00161139e565b6060600c8054611fe690614219565b80601f016020809104026020016040519081016040528092919081815260200182805461201290614219565b80156116d35780601f10612034576101008083540402835291602001916116d3565b820191906000526020600020905b81548152906001019060200180831161204257509395945050505050565b6120686124c6565b6001600160a01b0316856001600160a01b0316148061208e575061208e8561081d6124c6565b6120aa5760405162461bcd60e51b81526004016109479061433f565b61118385858585856129df565b6120bf612283565b6001600160a01b0381166121245760405162461bcd60e51b815260206004820152602660248201527f4f776e61626c653a206e6577206f776e657220697320746865207a65726f206160448201526564647265737360d01b6064820152608401610947565b6111be816126f6565b61213733836108e0565b6000036121565760405162461bcd60e51b815260040161094790614400565b6000828152601260205260409020546001600160a01b0316156121d45760405162461bcd60e51b815260206004820152603060248201527f476f7665726e65644e46543a207468697320746f6b656e2068617320616c726560448201526f18591e481899595b881c1b195919d95960821b6064820152608401610947565b60009182526012602052604090912080546001600160a01b0319166001600160a01b03909216919091179055565b600030330361225857600080368080601f0160208091040260200160405190810160405280939291908181526020018383808284376000920191909152505050503601516001600160a01b0316915061225b9050565b50335b90565b60006001600160e01b0319821663152a902d60e11b1480610975575061097582612b34565b61228b6124c6565b6001600160a01b03166122a66000546001600160a01b031690565b6001600160a01b0316146111d15760405162461bcd60e51b815260206004820181905260248201527f4f776e61626c653a2063616c6c6572206973206e6f7420746865206f776e65726044820152606401610947565b6001600160a01b0384166123225760405162461bcd60e51b8152600401610947906146b4565b600061232c6124c6565b9050600061233985612b84565b9050600061234685612b84565b905061235783600089858589612bcf565b60008681526001602090815260408083206001600160a01b038b168452909152812080548792906123899084906146f5565b909155505060408051878152602081018790526001600160a01b03808a1692600092918716917fc3d58168c5ae7397731d063d5bbf3d657854427343f4c083240f7aacaa2d0f62910160405180910390a46123e983600089858589612db7565b6123f883600089898989612f5f565b50505050505050565b600061097561240e6130ba565b8360405161190160f01b6020820152602281018390526042810182905260009060620160405160208183030381529060405280519060200120905092915050565b600080600061245e85856131e1565b915091506112f481613223565b606081600101805480602002602001604051908101604052809291908181526020018280548015610ba357602002820191906000526020600020905b8154815260200190600101908083116124a75750505050509050919050565b60006124d0612202565b905090565b81518351146124f65760405162461bcd60e51b815260040161094790614708565b6001600160a01b03841661251c5760405162461bcd60e51b815260040161094790614750565b60006125266124c6565b9050612536818787878787612bcf565b60005b845181101561261f5760008582815181106125565761255661438e565b6020026020010151905060008583815181106125745761257461438e565b60209081029190910181015160008481526001835260408082206001600160a01b038e1683529093529190912054909150818110156125c55760405162461bcd60e51b815260040161094790614795565b60008381526001602090815260408083206001600160a01b038e8116855292528083208585039055908b168252812080548492906126049084906146f5565b9250508190555050505080612618906143a4565b9050612539565b50846001600160a01b0316866001600160a01b0316826001600160a01b03167f4a39dc06d4c0dbc64b70af90fd698a233a518aa5d07e595d983b8c0526c8f7fb878760405161266f9291906147df565b60405180910390a4612685818787878787612db7565b6126938187878787876133d9565b505050505050565b6126a3613494565b6000805460ff60a01b191690557f5db9ee0a495bf2e6ff9c91a7834c1ba4fdd244a5e8aa4e537bd38aeae4b073aa6126d96124c6565b6040516001600160a01b03909116815260200160405180910390a1565b600080546001600160a01b038381166001600160a01b0319831681178455604051919092169283917f8be0079c531659141344cd1fd0a4f28419497f9722a3daafe3b4186f6b6457e09190a35050565b61274e6134e4565b6000805460ff60a01b1916600160a01b1790557f62e78cea01bee320cd4e420270b5ea74000d11b0c9f74754ebdbfc544b05a2586126d96124c6565b816001600160a01b0316836001600160a01b0316036127fd5760405162461bcd60e51b815260206004820152602960248201527f455243313135353a2073657474696e6720617070726f76616c20737461747573604482015268103337b91039b2b63360b91b6064820152608401610947565b6001600160a01b03838116600081815260026020908152604080832094871680845294825291829020805460ff191686151590811790915591519182527f17307eab39ab6107e8899845ad3d59bd9653f200f220920489ca2b5937696c31910160405180910390a3505050565b6001600160a01b0384166128905760405162461bcd60e51b8152600401610947906146b4565b81518351146128b15760405162461bcd60e51b815260040161094790614708565b60006128bb6124c6565b90506128cc81600087878787612bcf565b60005b8451811015612968578381815181106128ea576128ea61438e565b6020026020010151600160008784815181106129085761290861438e565b602002602001015181526020019081526020016000206000886001600160a01b03166001600160a01b03168152602001908152602001600020600082825461295091906146f5565b90915550819050612960816143a4565b9150506128cf565b50846001600160a01b031660006001600160a01b0316826001600160a01b03167f4a39dc06d4c0dbc64b70af90fd698a233a518aa5d07e595d983b8c0526c8f7fb87876040516129b99291906147df565b60405180910390a46129d081600087878787612db7565b611183816000878787876133d9565b6001600160a01b038416612a055760405162461bcd60e51b815260040161094790614750565b6000612a0f6124c6565b90506000612a1c85612b84565b90506000612a2985612b84565b9050612a39838989858589612bcf565b60008681526001602090815260408083206001600160a01b038c16845290915290205485811015612a7c5760405162461bcd60e51b815260040161094790614795565b60008781526001602090815260408083206001600160a01b038d8116855292528083208985039055908a16825281208054889290612abb9084906146f5565b909155505060408051888152602081018890526001600160a01b03808b16928c821692918816917fc3d58168c5ae7397731d063d5bbf3d657854427343f4c083240f7aacaa2d0f62910160405180910390a4612b1b848a8a86868a612db7565b612b29848a8a8a8a8a612f5f565b505050505050505050565b60006001600160e01b03198216636cdb3d1360e11b1480612b6557506001600160e01b031982166303a24d0760e21b145b8061097557506301ffc9a760e01b6001600160e01b0319831614610975565b60408051600180825281830190925260609160009190602080830190803683370190505090508281600081518110612bbe57612bbe61438e565b602090810291909101015292915050565b600054600160a01b900460ff1615612c3a5760405162461bcd60e51b815260206004820152602860248201527f476f7665726e65644e46543a20746f6b656e207472616e73666572207768696c60448201526719481c185d5cd95960c21b6064820152608401610947565b6000546001600160a01b038781169116141580612c58575060115442115b80612c6a57506001600160a01b038516155b612cea5760405162461bcd60e51b815260206004820152604560248201527f476f7665726e65644e46543a20746f6b656e207472616e73666572206e6f742060448201527f616c6c6f77656420647572696e6720746865206578636c757369766974792070606482015264195c9a5bd960da1b608482015260a401610947565b60005b83518110156123f85760006001600160a01b031660126000868481518110612d1757612d1761438e565b6020908102919091018101518252810191909152604001600020546001600160a01b031614612da55760405162461bcd60e51b815260206004820152603460248201527f476f7665726e65644e46543a20746f6b656e207472616e73666572206e6f7420604482015273185b1b1bddd959081dda195b881c1b195919d95960621b6064820152608401610947565b80612daf816143a4565b915050612ced565b60005b8351811015612ec457612e13848281518110612dd857612dd861438e565b6020026020010151600d6000886001600160a01b03166001600160a01b0316815260200190815260200160002061353190919063ffffffff16565b506001600160a01b038616612eb257828181518110612e3457612e3461438e565b6020026020010151600e6000868481518110612e5257612e5261438e565b602002602001015181526020019081526020016000206000828254612e7791906146f5565b92505081905550600f848281518110612e9257612e9261438e565b602090810291909101810151825460018101845560009384529190922001555b80612ebc816143a4565b915050612dba565b506001600160a01b038516156126935760005b83518110156123f857612ef6868583815181106112ba576112ba61438e565b600003612f4d57612f4d848281518110612f1257612f1261438e565b6020026020010151600d6000896001600160a01b03166001600160a01b031681526020019081526020016000206135e090919063ffffffff16565b80612f57816143a4565b915050612ed7565b6001600160a01b0384163b156126935760405163f23a6e6160e01b81526001600160a01b0385169063f23a6e6190612fa3908990899088908890889060040161480d565b6020604051808303816000875af1925050508015612fde575060408051601f3d908101601f19168201909252612fdb91810190614852565b60015b61308a57612fea61486f565b806308c379a0036130235750612ffe61488a565b806130095750613025565b8060405162461bcd60e51b81526004016109479190613a71565b505b60405162461bcd60e51b815260206004820152603460248201527f455243313135353a207472616e7366657220746f206e6f6e20455243313135356044820152732932b1b2b4bb32b91034b6b83632b6b2b73a32b960611b6064820152608401610947565b6001600160e01b0319811663f23a6e6160e01b146123f85760405162461bcd60e51b815260040161094790614913565b6000306001600160a01b037f00000000000000000000000000000000000000000000000000000000000000001614801561311357507f000000000000000000000000000000000000000000000000000000000000000046145b1561313d57507f000000000000000000000000000000000000000000000000000000000000000090565b50604080517f00000000000000000000000000000000000000000000000000000000000000006020808301919091527f0000000000000000000000000000000000000000000000000000000000000000828401527f000000000000000000000000000000000000000000000000000000000000000060608301524660808301523060a0808401919091528351808403909101815260c0909201909252805191012090565b60008082516041036132175760208301516040840151606085015160001a61320b878285856136fc565b94509450505050611125565b50600090506002611125565b60008160048111156132375761323761495b565b0361323f5750565b60018160048111156132535761325361495b565b036132a05760405162461bcd60e51b815260206004820152601860248201527f45434453413a20696e76616c6964207369676e617475726500000000000000006044820152606401610947565b60028160048111156132b4576132b461495b565b036133015760405162461bcd60e51b815260206004820152601f60248201527f45434453413a20696e76616c6964207369676e6174757265206c656e677468006044820152606401610947565b60038160048111156133155761331561495b565b0361336d5760405162461bcd60e51b815260206004820152602260248201527f45434453413a20696e76616c6964207369676e6174757265202773272076616c604482015261756560f01b6064820152608401610947565b60048160048111156133815761338161495b565b036111be5760405162461bcd60e51b815260206004820152602260248201527f45434453413a20696e76616c6964207369676e6174757265202776272076616c604482015261756560f01b6064820152608401610947565b6001600160a01b0384163b156126935760405163bc197c8160e01b81526001600160a01b0385169063bc197c819061341d9089908990889088908890600401614971565b6020604051808303816000875af1925050508015613458575060408051601f3d908101601f1916820190925261345591810190614852565b60015b61346457612fea61486f565b6001600160e01b0319811663bc197c8160e01b146123f85760405162461bcd60e51b815260040161094790614913565b600054600160a01b900460ff166111d15760405162461bcd60e51b815260206004820152601460248201527314185d5cd8589b194e881b9bdd081c185d5cd95960621b6044820152606401610947565b600054600160a01b900460ff16156111d15760405162461bcd60e51b815260206004820152601060248201526f14185d5cd8589b194e881c185d5cd95960821b6044820152606401610947565b60008160000361358f5760405162461bcd60e51b815260206004820152602360248201527f556e6f7264657265644b6579536574202d204b65792063616e6e6f742062652060448201526203078360ec1b6064820152608401610947565b61359983836137e9565b156135a657506000610975565b60018084018054808301825560008281526020902001849055546135ca91906149cf565b6000928352602093909352506040902055600190565b6135ea82826137e9565b61364f5760405162461bcd60e51b815260206004820152603060248201527f556e6f7264657265644b6579536574202d204b657920646f6573206e6f74206560448201526f3c34b9ba1034b7103a34329039b2ba1760811b6064820152608401610947565b60018281018054600092613662916149cf565b815481106136725761367261438e565b60009182526020808320909101548483529085905260408083205482845292208290556001850180549193508391839081106136b0576136b061438e565b6000918252602080832090910192909255848152908590526040812055600184018054806136e0576136e06149e2565b6001900381819060005260206000200160009055905550505050565b6000807f7fffffffffffffffffffffffffffffff5d576e7357a4501ddfe92f46681b20a083111561373357506000905060036137e0565b8460ff16601b1415801561374b57508460ff16601c14155b1561375c57506000905060046137e0565b6040805160008082526020820180845289905260ff881692820192909252606081018690526080810185905260019060a0016020604051602081039080840390855afa1580156137b0573d6000803e3d6000fd5b5050604051601f1901519150506001600160a01b0381166137d9576000600192509250506137e0565b9150600090505b94509492505050565b600182015460009081036137ff57506000610975565b60008281526020849052604090205460018401805484929081106138255761382561438e565b906000526020600020015414905092915050565b80356001600160a01b038116811461385057600080fd5b919050565b6000806040838503121561386857600080fd5b61387183613839565b946020939093013593505050565b6001600160e01b0319811681146111be57600080fd5b6000602082840312156138a757600080fd5b81356138b28161387f565b9392505050565b6000815180845260005b818110156138df576020818501810151868301820152016138c3565b506000602082860101526020601f19601f83011685010191505092915050565b6001600160801b03831681526040602082015281516040820152602082015160608201526000604083015160808084015261393d60c08401826138b9565b9050606084015160a0840152809150509392505050565b634e487b7160e01b600052604160045260246000fd5b601f8201601f191681016001600160401b038111828210171561398f5761398f613954565b6040525050565b600082601f8301126139a757600080fd5b81356001600160401b038111156139c0576139c0613954565b6040516139d7601f8301601f19166020018261396a565b8181528460208386010111156139ec57600080fd5b816020850160208301376000918101602001919091529392505050565b600080600060608486031215613a1e57600080fd5b833592506020840135915060408401356001600160401b03811115613a4257600080fd5b613a4e86828701613996565b9150509250925092565b600060208284031215613a6a57600080fd5b5035919050565b6020815260006138b260208301846138b9565b600060608284031215613a9657600080fd5b50919050565b60008083601f840112613aae57600080fd5b5081356001600160401b03811115613ac557600080fd5b60208301915083602082850101111561112557600080fd5b600080600060408486031215613af257600080fd5b83356001600160401b0380821115613b0957600080fd5b613b1587838801613a84565b94506020860135915080821115613b2b57600080fd5b50613b3886828701613a9c565b9497909650939450505050565b600060208284031215613b5757600080fd5b6138b282613839565b600081518084526020808501945080840160005b83811015613b9057815187529582019590820190600101613b74565b509495945050505050565b6020815260006138b26020830184613b60565b60008060408385031215613bc157600080fd5b50508035926020909101359150565b60006001600160401b03821115613be957613be9613954565b5060051b60200190565b600082601f830112613c0457600080fd5b81356020613c1182613bd0565b604051613c1e828261396a565b83815260059390931b8501820192828101915086841115613c3e57600080fd5b8286015b84811015613c595780358352918301918301613c42565b509695505050505050565b600080600080600060a08688031215613c7c57600080fd5b613c8586613839565b9450613c9360208701613839565b935060408601356001600160401b0380821115613caf57600080fd5b613cbb89838a01613bf3565b94506060880135915080821115613cd157600080fd5b613cdd89838a01613bf3565b93506080880135915080821115613cf357600080fd5b50613d0088828901613996565b9150509295509295909350565b6001600160801b03811681146111be57600080fd5b60008060408385031215613d3557600080fd5b613d3e83613839565b91506020830135613d4e81613d0d565b809150509250929050565b60008060408385031215613d6c57600080fd5b82356001600160401b0380821115613d8357600080fd5b818501915085601f830112613d9757600080fd5b81356020613da482613bd0565b604051613db1828261396a565b83815260059390931b8501820192828101915089841115613dd157600080fd5b948201945b83861015613df657613de786613839565b82529482019490820190613dd6565b96505086013592505080821115613e0c57600080fd5b50613e1985828601613bf3565b9150509250929050565b6001600160f81b0319811681146111be57600080fd5b60008060408385031215613e4c57600080fd5b823591506020830135613d4e81613e23565b60008060008060608587031215613e7457600080fd5b84356001600160401b0380821115613e8b57600080fd5b613e9788838901613a84565b95506020870135915080821115613ead57600080fd5b50613eba87828801613a9c565b9598909750949560400135949350505050565b60008060408385031215613ee057600080fd5b8235915060208301356001600160401b03811115613efd57600080fd5b613e1985828601613996565b60008060408385031215613f1c57600080fd5b613f2583613839565b915060208301358015158114613d4e57600080fd5b600080600060608486031215613f4f57600080fd5b83356001600160401b0380821115613f6657600080fd5b613f7287838801613bf3565b94506020860135915080821115613f8857600080fd5b613f9487838801613bf3565b93506040860135915080821115613faa57600080fd5b50613a4e86828701613996565b600080600080600060a08688031215613fcf57600080fd5b8535613fda81613d0d565b9450602086013593506040860135925060608601356001600160401b0381111561400357600080fd5b61400f88828901613996565b95989497509295608001359392505050565b60006020828403121561403357600080fd5b81356138b281613d0d565b60006020808301818452808551808352604092508286019150828160051b87010184880160005b838110156140dd57888303603f19018552815180516001600160a01b031684528781015188850152868101516001600160801b0319168785015260608082015160a082870181905291906140bb838801826138b9565b6080948501519790940196909652505094870194925090860190600101614065565b509098975050505050505050565b6000602082840312156140fd57600080fd5b81356001600160401b0381111561411357600080fd5b61411f84828501613996565b949350505050565b6000806040838503121561413a57600080fd5b61414383613839565b915061415160208401613839565b90509250929050565b60008082840360e081121561416e57600080fd5b8335925060c0601f198201121561418457600080fd5b506020830190509250929050565b600080600080600060a086880312156141aa57600080fd5b6141b386613839565b94506141c160208701613839565b9350604086013592506060860135915060808601356001600160401b038111156141ea57600080fd5b613d0088828901613996565b6000806040838503121561420957600080fd5b8235915061415160208401613839565b600181811c9082168061422d57607f821691505b602082108103613a9657634e487b7160e01b600052602260045260246000fd5b6020808252602d908201527f476f7665726e65644e46543a2063616e6e6f742072652d6d696e7420616e206560408201526c3c34b9ba34b733903a37b5b2b760991b606082015260800190565b6000808335601e198436030181126142b157600080fd5b8301803591506001600160401b038211156142cb57600080fd5b60200191503681900382131561112557600080fd5b8183823760009101908152919050565b634e487b7160e01b600052601160045260246000fd5b8082028115828204841417610975576109756142f0565b60008261433a57634e487b7160e01b600052601260045260246000fd5b500490565b6020808252602f908201527f455243313135353a2063616c6c6572206973206e6f7420746f6b656e206f776e60408201526e195c881b9bdc88185c1c1c9bdd9959608a1b606082015260800190565b634e487b7160e01b600052603260045260246000fd5b6000600182016143b6576143b66142f0565b5060010190565b60208082526023908201527f476f7665726e65644e46543a20756e617574686f72697a6564206f706572617460408201526234b7b760e91b606082015260800190565b60208082526035908201527f476f7665726e65644e46543a207468697320696e646976696475616c206973206040820152743737ba1037bbb734b733903a3430ba103a37b5b2b760591b606082015260800190565b6001600160801b0319813581811691601085101561447d5780818660100360031b1b83161692505b505092915050565b601f821115610ae857600081815260208120601f850160051c810160208610156144ac5750805b601f850160051c820191505b81811015612693578281556001016144b8565b81516001600160401b038111156144e4576144e4613954565b6144f8816144f28454614219565b84614485565b602080601f83116001811461452d57600084156145155750858301515b600019600386901b1c1916600185901b178555612693565b600085815260208120601f198616915b8281101561455c5788860151825594840194600190910190840161453d565b508582101561457a5787850151600019600388901b60f8161c191681555b5050505050600190811b01905550565b60ff811681146111be57600080fd5b6001600160e81b0319811681146111be57600080fd5b813581556001810160208301356145c581613d0d565b815460408501356145d58161458a565b60608601356145e381614599565b60808701356145f181613e23565b60a08801356145ff81613e23565b60589190911c60ff60a01b1660609290921c62ffffff60881b166001600160b01b03199094166001600160801b03959095169490941760809290921b60ff60801b1691909117919091171760509190911c60ff60a81b161790555050565b60006020828403121561466f57600080fd5b81356138b28161458a565b60006020828403121561468c57600080fd5b81356138b281614599565b6000602082840312156146a957600080fd5b81356138b281613e23565b60208082526021908201527f455243313135353a206d696e7420746f20746865207a65726f206164647265736040820152607360f81b606082015260800190565b80820180821115610975576109756142f0565b60208082526028908201527f455243313135353a2069647320616e6420616d6f756e7473206c656e677468206040820152670dad2e6dac2e8c6d60c31b606082015260800190565b60208082526025908201527f455243313135353a207472616e7366657220746f20746865207a65726f206164604082015264647265737360d81b606082015260800190565b6020808252602a908201527f455243313135353a20696e73756666696369656e742062616c616e636520666f60408201526939103a3930b739b332b960b11b606082015260800190565b6040815260006147f26040830185613b60565b82810360208401526148048185613b60565b95945050505050565b6001600160a01b03868116825285166020820152604081018490526060810183905260a060808201819052600090614847908301846138b9565b979650505050505050565b60006020828403121561486457600080fd5b81516138b28161387f565b600060033d111561225b5760046000803e5060005160e01c90565b600060443d10156148985790565b6040516003193d81016004833e81513d6001600160401b0381602484011181841117156148c757505050505090565b82850191508151818111156148df5750505050505090565b843d87010160208285010111156148f95750505050505090565b6149086020828601018761396a565b509095945050505050565b60208082526028908201527f455243313135353a204552433131353552656365697665722072656a656374656040820152676420746f6b656e7360c01b606082015260800190565b634e487b7160e01b600052602160045260246000fd5b6001600160a01b0386811682528516602082015260a06040820181905260009061499d90830186613b60565b82810360608401526149af8186613b60565b905082810360808401526149c381856138b9565b98975050505050505050565b81810381811115610975576109756142f0565b634e487b7160e01b600052603160045260246000fdfea2646970667358221220b2c53112f0f79a90df6f0ee53bc1161fc1581e425cd5b101f66b278a7a6b6e7564736f6c63430008110033",
    "sourcePath": "/home/philippe/Desktop/nft4Art/PoS/server/contracts/GovernedNFT.sol",
    "compiler": {
        "name": "solc",
        "version": "0.8.17+commit.8df45f5f"
    },
    "functionHashes": {
        "balanceOf(address,uint256)": "00fdd58e",
        "balanceOfBatch(address[],uint256[])": "4e1273f4",
        "getBallots(uint128)": "c1fc8dbb",
        "getDefaultURi()": "f02425e8",
        "getExclusivityForAll()": "4219701b",
        "getSale(uint256)": "d8f6d596",
        "getVote()": "0242f351",
        "getVoteById(uint128)": "cd1ce091",
        "hasVoted(address,uint128)": "38c42ae4",
        "isAllowed(address)": "babcc539",
        "isApprovedForAll(address,address)": "e985e9c5",
        "isPledged(uint256)": "429e2329",
        "mint(uint256,uint256,bytes)": "08dc9f42",
        "mintBatch(uint256[],uint256[],bytes)": "bb4351e8",
        "numberOfPieces(uint256)": "6c5a4542",
        "owner()": "8da5cb5b",
        "pause()": "8456cb59",
        "paused()": "5c975abb",
        "removePledge(uint256)": "a9b5a058",
        "renounceOwnership()": "715018a6",
        "revoke(address)": "74a8f103",
        "royaltyInfo(uint256,uint256)": "2a55205a",
        "safeBatchTransferFrom(address,address,uint256[],uint256[],bytes)": "2eb2c2d6",
        "safeTransferFrom(address,address,uint256,uint256,bytes)": "f242432a",
        "saleRecord(uint256,(bytes32,uint128,uint8,bytes3,bytes1,bytes1))": "ecd1617a",
        "saleUpdate(uint256,bytes1)": "4ec5d27e",
        "setApprovalForAll(address,bool)": "a22cb465",
        "setDefaultURI(string)": "da1b9e08",
        "setExclusivityForAll(address,uint256)": "9a87c691",
        "setPlege(uint256,address)": "f61e5dae",
        "setURI(uint256,string)": "862440e2",
        "setVote(uint128,uint256,uint256,string,uint256)": "c1b02179",
        "supportsInterface(bytes4)": "01ffc9a7",
        "tokensIssued()": "7c48bbda",
        "tokensOwned(address)": "21cda790",
        "transferOwnership(address)": "f2fde38b",
        "unpause()": "3f4ba83a",
        "uri(uint256)": "0e89341c",
        "verify((address,uint128,bytes),bytes)": "14ce6538",
        "vote((address,uint128,bytes),bytes,uint256)": "69d2fabe",
        "withdraw()": "3ccfd60b"
    },
    "gasEstimates": {
        "creation": {
            "codeDepositCost": "3798000",
            "executionCost": "infinite",
            "totalCost": "infinite"
        },
        "external": {
            "balanceOf(address,uint256)": "2726",
            "balanceOfBatch(address[],uint256[])": "infinite",
            "getBallots(uint128)": "infinite",
            "getDefaultURi()": "infinite",
            "getExclusivityForAll()": "4557",
            "getSale(uint256)": "9670",
            "getVote()": "infinite",
            "getVoteById(uint128)": "infinite",
            "hasVoted(address,uint128)": "2890",
            "isAllowed(address)": "2663",
            "isApprovedForAll(address,address)": "infinite",
            "isPledged(uint256)": "2580",
            "mint(uint256,uint256,bytes)": "infinite",
            "mintBatch(uint256[],uint256[],bytes)": "infinite",
            "numberOfPieces(uint256)": "2538",
            "owner()": "2435",
            "pause()": "infinite",
            "paused()": "2388",
            "removePledge(uint256)": "26852",
            "renounceOwnership()": "infinite",
            "revoke(address)": "infinite",
            "royaltyInfo(uint256,uint256)": "5193",
            "safeBatchTransferFrom(address,address,uint256[],uint256[],bytes)": "infinite",
            "safeTransferFrom(address,address,uint256,uint256,bytes)": "infinite",
            "saleRecord(uint256,(bytes32,uint128,uint8,bytes3,bytes1,bytes1))": "infinite",
            "saleUpdate(uint256,bytes1)": "32936",
            "setApprovalForAll(address,bool)": "infinite",
            "setDefaultURI(string)": "infinite",
            "setExclusivityForAll(address,uint256)": "infinite",
            "setPlege(uint256,address)": "29380",
            "setURI(uint256,string)": "infinite",
            "setVote(uint128,uint256,uint256,string,uint256)": "infinite",
            "supportsInterface(bytes4)": "infinite",
            "tokensIssued()": "infinite",
            "tokensOwned(address)": "infinite",
            "transferOwnership(address)": "infinite",
            "unpause()": "infinite",
            "uri(uint256)": "infinite",
            "verify((address,uint128,bytes),bytes)": "infinite",
            "vote((address,uint128,bytes),bytes,uint256)": "infinite",
            "withdraw()": "infinite"
        },
        "internal": {
            "_afterTokenTransfer(address,address,address,uint256[] memory,uint256[] memory,bytes memory)": "infinite",
            "_beforeTokenTransfer(address,address,address,uint256[] memory,uint256[] memory,bytes memory)": "infinite",
            "_msgSender()": "infinite"
        }
    }
}