{
    "contractName": "GovernedNFT",
    "abi": [
        {
            "inputs": [],
            "stateMutability": "nonpayable",
            "type": "constructor"
        },
        {
            "anonymous": false,
            "inputs": [
                {
                    "indexed": true,
                    "internalType": "address",
                    "name": "account",
                    "type": "address"
                },
                {
                    "indexed": true,
                    "internalType": "address",
                    "name": "operator",
                    "type": "address"
                },
                {
                    "indexed": false,
                    "internalType": "bool",
                    "name": "approved",
                    "type": "bool"
                }
            ],
            "name": "ApprovalForAll",
            "type": "event"
        },
        {
            "anonymous": false,
            "inputs": [
                {
                    "indexed": true,
                    "internalType": "address",
                    "name": "operator",
                    "type": "address"
                },
                {
                    "indexed": false,
                    "internalType": "uint256",
                    "name": "until",
                    "type": "uint256"
                }
            ],
            "name": "Exclusivity",
            "type": "event"
        },
        {
            "anonymous": false,
            "inputs": [
                {
                    "indexed": true,
                    "internalType": "address",
                    "name": "who",
                    "type": "address"
                },
                {
                    "indexed": true,
                    "internalType": "uint256",
                    "name": "tokenId",
                    "type": "uint256"
                }
            ],
            "name": "HasVoted",
            "type": "event"
        },
        {
            "anonymous": false,
            "inputs": [
                {
                    "indexed": true,
                    "internalType": "address",
                    "name": "previousOwner",
                    "type": "address"
                },
                {
                    "indexed": true,
                    "internalType": "address",
                    "name": "newOwner",
                    "type": "address"
                }
            ],
            "name": "OwnershipTransferred",
            "type": "event"
        },
        {
            "anonymous": false,
            "inputs": [
                {
                    "indexed": false,
                    "internalType": "address",
                    "name": "account",
                    "type": "address"
                }
            ],
            "name": "Paused",
            "type": "event"
        },
        {
            "anonymous": false,
            "inputs": [
                {
                    "indexed": false,
                    "internalType": "address",
                    "name": "",
                    "type": "address"
                },
                {
                    "indexed": false,
                    "internalType": "uint256",
                    "name": "",
                    "type": "uint256"
                }
            ],
            "name": "ReceivedEth",
            "type": "event"
        },
        {
            "anonymous": false,
            "inputs": [
                {
                    "indexed": true,
                    "internalType": "uint256",
                    "name": "tokenId",
                    "type": "uint256"
                },
                {
                    "indexed": true,
                    "internalType": "bytes32",
                    "name": "buyer",
                    "type": "bytes32"
                },
                {
                    "indexed": false,
                    "internalType": "uint128",
                    "name": "price",
                    "type": "uint128"
                },
                {
                    "indexed": false,
                    "internalType": "uint8",
                    "name": "decimals",
                    "type": "uint8"
                },
                {
                    "indexed": false,
                    "internalType": "bytes3",
                    "name": "currency",
                    "type": "bytes3"
                },
                {
                    "indexed": false,
                    "internalType": "bytes1",
                    "name": "network",
                    "type": "bytes1"
                },
                {
                    "indexed": false,
                    "internalType": "bytes1",
                    "name": "status",
                    "type": "bytes1"
                }
            ],
            "name": "Sale",
            "type": "event"
        },
        {
            "anonymous": false,
            "inputs": [
                {
                    "indexed": true,
                    "internalType": "uint256",
                    "name": "tokenId",
                    "type": "uint256"
                },
                {
                    "indexed": true,
                    "internalType": "bytes32",
                    "name": "buyer",
                    "type": "bytes32"
                },
                {
                    "indexed": false,
                    "internalType": "bytes1",
                    "name": "status",
                    "type": "bytes1"
                }
            ],
            "name": "SaleUpdate",
            "type": "event"
        },
        {
            "anonymous": false,
            "inputs": [
                {
                    "indexed": true,
                    "internalType": "address",
                    "name": "operator",
                    "type": "address"
                },
                {
                    "indexed": true,
                    "internalType": "address",
                    "name": "from",
                    "type": "address"
                },
                {
                    "indexed": true,
                    "internalType": "address",
                    "name": "to",
                    "type": "address"
                },
                {
                    "indexed": false,
                    "internalType": "uint256[]",
                    "name": "ids",
                    "type": "uint256[]"
                },
                {
                    "indexed": false,
                    "internalType": "uint256[]",
                    "name": "values",
                    "type": "uint256[]"
                }
            ],
            "name": "TransferBatch",
            "type": "event"
        },
        {
            "anonymous": false,
            "inputs": [
                {
                    "indexed": true,
                    "internalType": "address",
                    "name": "operator",
                    "type": "address"
                },
                {
                    "indexed": true,
                    "internalType": "address",
                    "name": "from",
                    "type": "address"
                },
                {
                    "indexed": true,
                    "internalType": "address",
                    "name": "to",
                    "type": "address"
                },
                {
                    "indexed": false,
                    "internalType": "uint256",
                    "name": "id",
                    "type": "uint256"
                },
                {
                    "indexed": false,
                    "internalType": "uint256",
                    "name": "value",
                    "type": "uint256"
                }
            ],
            "name": "TransferSingle",
            "type": "event"
        },
        {
            "anonymous": false,
            "inputs": [
                {
                    "indexed": false,
                    "internalType": "string",
                    "name": "value",
                    "type": "string"
                },
                {
                    "indexed": true,
                    "internalType": "uint256",
                    "name": "id",
                    "type": "uint256"
                }
            ],
            "name": "URI",
            "type": "event"
        },
        {
            "anonymous": false,
            "inputs": [
                {
                    "indexed": false,
                    "internalType": "address",
                    "name": "account",
                    "type": "address"
                }
            ],
            "name": "Unpaused",
            "type": "event"
        },
        {
            "anonymous": false,
            "inputs": [
                {
                    "indexed": true,
                    "internalType": "address",
                    "name": "who",
                    "type": "address"
                },
                {
                    "indexed": true,
                    "internalType": "uint256",
                    "name": "voteId",
                    "type": "uint256"
                }
            ],
            "name": "VoteCreated",
            "type": "event"
        },
        {
            "inputs": [
                {
                    "internalType": "address",
                    "name": "account",
                    "type": "address"
                },
                {
                    "internalType": "uint256",
                    "name": "id",
                    "type": "uint256"
                }
            ],
            "name": "balanceOf",
            "outputs": [
                {
                    "internalType": "uint256",
                    "name": "",
                    "type": "uint256"
                }
            ],
            "stateMutability": "view",
            "type": "function"
        },
        {
            "inputs": [
                {
                    "internalType": "address[]",
                    "name": "accounts",
                    "type": "address[]"
                },
                {
                    "internalType": "uint256[]",
                    "name": "ids",
                    "type": "uint256[]"
                }
            ],
            "name": "balanceOfBatch",
            "outputs": [
                {
                    "internalType": "uint256[]",
                    "name": "",
                    "type": "uint256[]"
                }
            ],
            "stateMutability": "view",
            "type": "function"
        },
        {
            "inputs": [
                {
                    "internalType": "uint128",
                    "name": "voteId",
                    "type": "uint128"
                }
            ],
            "name": "getBallots",
            "outputs": [
                {
                    "components": [
                        {
                            "internalType": "address",
                            "name": "from",
                            "type": "address"
                        },
                        {
                            "internalType": "uint256",
                            "name": "tokenId",
                            "type": "uint256"
                        },
                        {
                            "internalType": "bytes16",
                            "name": "data",
                            "type": "bytes16"
                        },
                        {
                            "internalType": "bytes",
                            "name": "signature",
                            "type": "bytes"
                        },
                        {
                            "internalType": "uint256",
                            "name": "timestamp",
                            "type": "uint256"
                        }
                    ],
                    "internalType": "struct GovernedNFT.Ballot[]",
                    "name": "",
                    "type": "tuple[]"
                }
            ],
            "stateMutability": "view",
            "type": "function"
        },
        {
            "inputs": [],
            "name": "getDefaultURi",
            "outputs": [
                {
                    "internalType": "string",
                    "name": "",
                    "type": "string"
                }
            ],
            "stateMutability": "view",
            "type": "function"
        },
        {
            "inputs": [],
            "name": "getExclusivityForAll",
            "outputs": [
                {
                    "internalType": "address",
                    "name": "",
                    "type": "address"
                },
                {
                    "internalType": "uint256",
                    "name": "",
                    "type": "uint256"
                }
            ],
            "stateMutability": "view",
            "type": "function"
        },
        {
            "inputs": [
                {
                    "internalType": "uint256",
                    "name": "tokenId_",
                    "type": "uint256"
                }
            ],
            "name": "getSale",
            "outputs": [
                {
                    "components": [
                        {
                            "internalType": "bytes32",
                            "name": "buyer",
                            "type": "bytes32"
                        },
                        {
                            "internalType": "uint128",
                            "name": "price",
                            "type": "uint128"
                        },
                        {
                            "internalType": "uint8",
                            "name": "decimals",
                            "type": "uint8"
                        },
                        {
                            "internalType": "bytes3",
                            "name": "currency",
                            "type": "bytes3"
                        },
                        {
                            "internalType": "bytes1",
                            "name": "network",
                            "type": "bytes1"
                        },
                        {
                            "internalType": "bytes1",
                            "name": "status",
                            "type": "bytes1"
                        }
                    ],
                    "internalType": "struct GovernedNFT.SaleRecord",
                    "name": "",
                    "type": "tuple"
                }
            ],
            "stateMutability": "view",
            "type": "function"
        },
        {
            "inputs": [],
            "name": "getVote",
            "outputs": [
                {
                    "internalType": "uint128",
                    "name": "",
                    "type": "uint128"
                },
                {
                    "components": [
                        {
                            "internalType": "uint256",
                            "name": "startDate",
                            "type": "uint256"
                        },
                        {
                            "internalType": "uint256",
                            "name": "endDate",
                            "type": "uint256"
                        },
                        {
                            "internalType": "string",
                            "name": "cid",
                            "type": "string"
                        },
                        {
                            "internalType": "uint256",
                            "name": "hash",
                            "type": "uint256"
                        }
                    ],
                    "internalType": "struct GovernedNFT.Vote",
                    "name": "",
                    "type": "tuple"
                }
            ],
            "stateMutability": "view",
            "type": "function"
        },
        {
            "inputs": [
                {
                    "internalType": "uint128",
                    "name": "voteId",
                    "type": "uint128"
                }
            ],
            "name": "getVoteById",
            "outputs": [
                {
                    "internalType": "uint128",
                    "name": "",
                    "type": "uint128"
                },
                {
                    "components": [
                        {
                            "internalType": "uint256",
                            "name": "startDate",
                            "type": "uint256"
                        },
                        {
                            "internalType": "uint256",
                            "name": "endDate",
                            "type": "uint256"
                        },
                        {
                            "internalType": "string",
                            "name": "cid",
                            "type": "string"
                        },
                        {
                            "internalType": "uint256",
                            "name": "hash",
                            "type": "uint256"
                        }
                    ],
                    "internalType": "struct GovernedNFT.Vote",
                    "name": "",
                    "type": "tuple"
                }
            ],
            "stateMutability": "view",
            "type": "function"
        },
        {
            "inputs": [
                {
                    "internalType": "address",
                    "name": "who",
                    "type": "address"
                },
                {
                    "internalType": "uint128",
                    "name": "voteId",
                    "type": "uint128"
                }
            ],
            "name": "hasVoted",
            "outputs": [
                {
                    "internalType": "bool",
                    "name": "",
                    "type": "bool"
                }
            ],
            "stateMutability": "view",
            "type": "function"
        },
        {
            "inputs": [
                {
                    "internalType": "address",
                    "name": "who",
                    "type": "address"
                }
            ],
            "name": "isAllowed",
            "outputs": [
                {
                    "internalType": "bool",
                    "name": "",
                    "type": "bool"
                }
            ],
            "stateMutability": "view",
            "type": "function"
        },
        {
            "inputs": [
                {
                    "internalType": "address",
                    "name": "account",
                    "type": "address"
                },
                {
                    "internalType": "address",
                    "name": "operator",
                    "type": "address"
                }
            ],
            "name": "isApprovedForAll",
            "outputs": [
                {
                    "internalType": "bool",
                    "name": "",
                    "type": "bool"
                }
            ],
            "stateMutability": "view",
            "type": "function"
        },
        {
            "inputs": [
                {
                    "internalType": "uint256",
                    "name": "id",
                    "type": "uint256"
                },
                {
                    "internalType": "uint256",
                    "name": "amount",
                    "type": "uint256"
                },
                {
                    "internalType": "bytes",
                    "name": "data",
                    "type": "bytes"
                }
            ],
            "name": "mint",
            "outputs": [],
            "stateMutability": "nonpayable",
            "type": "function"
        },
        {
            "inputs": [
                {
                    "internalType": "uint256[]",
                    "name": "ids",
                    "type": "uint256[]"
                },
                {
                    "internalType": "uint256[]",
                    "name": "amounts",
                    "type": "uint256[]"
                },
                {
                    "internalType": "bytes",
                    "name": "data",
                    "type": "bytes"
                }
            ],
            "name": "mintBatch",
            "outputs": [],
            "stateMutability": "nonpayable",
            "type": "function"
        },
        {
            "inputs": [
                {
                    "internalType": "uint256",
                    "name": "tokenId",
                    "type": "uint256"
                }
            ],
            "name": "numberOfPieces",
            "outputs": [
                {
                    "internalType": "uint256",
                    "name": "",
                    "type": "uint256"
                }
            ],
            "stateMutability": "view",
            "type": "function"
        },
        {
            "inputs": [],
            "name": "owner",
            "outputs": [
                {
                    "internalType": "address",
                    "name": "",
                    "type": "address"
                }
            ],
            "stateMutability": "view",
            "type": "function"
        },
        {
            "inputs": [],
            "name": "pause",
            "outputs": [],
            "stateMutability": "nonpayable",
            "type": "function"
        },
        {
            "inputs": [],
            "name": "paused",
            "outputs": [
                {
                    "internalType": "bool",
                    "name": "",
                    "type": "bool"
                }
            ],
            "stateMutability": "view",
            "type": "function"
        },
        {
            "inputs": [],
            "name": "renounceOwnership",
            "outputs": [],
            "stateMutability": "nonpayable",
            "type": "function"
        },
        {
            "inputs": [
                {
                    "internalType": "address",
                    "name": "voter",
                    "type": "address"
                }
            ],
            "name": "revoke",
            "outputs": [],
            "stateMutability": "nonpayable",
            "type": "function"
        },
        {
            "inputs": [
                {
                    "internalType": "uint256",
                    "name": "_tokenId",
                    "type": "uint256"
                },
                {
                    "internalType": "uint256",
                    "name": "_salePrice",
                    "type": "uint256"
                }
            ],
            "name": "royaltyInfo",
            "outputs": [
                {
                    "internalType": "address",
                    "name": "",
                    "type": "address"
                },
                {
                    "internalType": "uint256",
                    "name": "",
                    "type": "uint256"
                }
            ],
            "stateMutability": "view",
            "type": "function"
        },
        {
            "inputs": [
                {
                    "internalType": "address",
                    "name": "from",
                    "type": "address"
                },
                {
                    "internalType": "address",
                    "name": "to",
                    "type": "address"
                },
                {
                    "internalType": "uint256[]",
                    "name": "ids",
                    "type": "uint256[]"
                },
                {
                    "internalType": "uint256[]",
                    "name": "amounts",
                    "type": "uint256[]"
                },
                {
                    "internalType": "bytes",
                    "name": "data",
                    "type": "bytes"
                }
            ],
            "name": "safeBatchTransferFrom",
            "outputs": [],
            "stateMutability": "nonpayable",
            "type": "function"
        },
        {
            "inputs": [
                {
                    "internalType": "address",
                    "name": "from",
                    "type": "address"
                },
                {
                    "internalType": "address",
                    "name": "to",
                    "type": "address"
                },
                {
                    "internalType": "uint256",
                    "name": "id",
                    "type": "uint256"
                },
                {
                    "internalType": "uint256",
                    "name": "amount",
                    "type": "uint256"
                },
                {
                    "internalType": "bytes",
                    "name": "data",
                    "type": "bytes"
                }
            ],
            "name": "safeTransferFrom",
            "outputs": [],
            "stateMutability": "nonpayable",
            "type": "function"
        },
        {
            "inputs": [
                {
                    "internalType": "uint256",
                    "name": "tokenId_",
                    "type": "uint256"
                },
                {
                    "components": [
                        {
                            "internalType": "bytes32",
                            "name": "buyer",
                            "type": "bytes32"
                        },
                        {
                            "internalType": "uint128",
                            "name": "price",
                            "type": "uint128"
                        },
                        {
                            "internalType": "uint8",
                            "name": "decimals",
                            "type": "uint8"
                        },
                        {
                            "internalType": "bytes3",
                            "name": "currency",
                            "type": "bytes3"
                        },
                        {
                            "internalType": "bytes1",
                            "name": "network",
                            "type": "bytes1"
                        },
                        {
                            "internalType": "bytes1",
                            "name": "status",
                            "type": "bytes1"
                        }
                    ],
                    "internalType": "struct GovernedNFT.SaleRecord",
                    "name": "sale_",
                    "type": "tuple"
                }
            ],
            "name": "saleRecord",
            "outputs": [],
            "stateMutability": "nonpayable",
            "type": "function"
        },
        {
            "inputs": [
                {
                    "internalType": "uint256",
                    "name": "tokenId_",
                    "type": "uint256"
                },
                {
                    "internalType": "bytes1",
                    "name": "status_",
                    "type": "bytes1"
                }
            ],
            "name": "saleUpdate",
            "outputs": [],
            "stateMutability": "nonpayable",
            "type": "function"
        },
        {
            "inputs": [
                {
                    "internalType": "address",
                    "name": "operator",
                    "type": "address"
                },
                {
                    "internalType": "bool",
                    "name": "approved",
                    "type": "bool"
                }
            ],
            "name": "setApprovalForAll",
            "outputs": [],
            "stateMutability": "nonpayable",
            "type": "function"
        },
        {
            "inputs": [
                {
                    "internalType": "string",
                    "name": "uri_",
                    "type": "string"
                }
            ],
            "name": "setDefaultURI",
            "outputs": [],
            "stateMutability": "nonpayable",
            "type": "function"
        },
        {
            "inputs": [
                {
                    "internalType": "address",
                    "name": "operator",
                    "type": "address"
                },
                {
                    "internalType": "uint256",
                    "name": "until",
                    "type": "uint256"
                }
            ],
            "name": "setExclusivityForAll",
            "outputs": [],
            "stateMutability": "nonpayable",
            "type": "function"
        },
        {
            "inputs": [
                {
                    "internalType": "uint256",
                    "name": "tokenId_",
                    "type": "uint256"
                },
                {
                    "internalType": "string",
                    "name": "uri_",
                    "type": "string"
                }
            ],
            "name": "setURI",
            "outputs": [],
            "stateMutability": "nonpayable",
            "type": "function"
        },
        {
            "inputs": [
                {
                    "internalType": "uint128",
                    "name": "voteId",
                    "type": "uint128"
                },
                {
                    "internalType": "uint256",
                    "name": "start",
                    "type": "uint256"
                },
                {
                    "internalType": "uint256",
                    "name": "end",
                    "type": "uint256"
                },
                {
                    "internalType": "string",
                    "name": "cid",
                    "type": "string"
                },
                {
                    "internalType": "uint256",
                    "name": "hash",
                    "type": "uint256"
                }
            ],
            "name": "setVote",
            "outputs": [],
            "stateMutability": "nonpayable",
            "type": "function"
        },
        {
            "inputs": [
                {
                    "internalType": "bytes4",
                    "name": "interfaceId",
                    "type": "bytes4"
                }
            ],
            "name": "supportsInterface",
            "outputs": [
                {
                    "internalType": "bool",
                    "name": "",
                    "type": "bool"
                }
            ],
            "stateMutability": "view",
            "type": "function"
        },
        {
            "inputs": [],
            "name": "tokensIssued",
            "outputs": [
                {
                    "internalType": "uint256[]",
                    "name": "",
                    "type": "uint256[]"
                }
            ],
            "stateMutability": "view",
            "type": "function"
        },
        {
            "inputs": [
                {
                    "internalType": "address",
                    "name": "owner",
                    "type": "address"
                }
            ],
            "name": "tokensOwned",
            "outputs": [
                {
                    "internalType": "uint256[]",
                    "name": "",
                    "type": "uint256[]"
                }
            ],
            "stateMutability": "view",
            "type": "function"
        },
        {
            "inputs": [
                {
                    "internalType": "address",
                    "name": "newOwner",
                    "type": "address"
                }
            ],
            "name": "transferOwnership",
            "outputs": [],
            "stateMutability": "nonpayable",
            "type": "function"
        },
        {
            "inputs": [],
            "name": "unpause",
            "outputs": [],
            "stateMutability": "nonpayable",
            "type": "function"
        },
        {
            "inputs": [
                {
                    "internalType": "uint256",
                    "name": "tokenId_",
                    "type": "uint256"
                }
            ],
            "name": "uri",
            "outputs": [
                {
                    "internalType": "string",
                    "name": "",
                    "type": "string"
                }
            ],
            "stateMutability": "view",
            "type": "function"
        },
        {
            "inputs": [
                {
                    "components": [
                        {
                            "internalType": "address",
                            "name": "from",
                            "type": "address"
                        },
                        {
                            "internalType": "uint128",
                            "name": "voteId",
                            "type": "uint128"
                        },
                        {
                            "internalType": "bytes",
                            "name": "data",
                            "type": "bytes"
                        }
                    ],
                    "internalType": "struct GovernedNFT.BallotMessage",
                    "name": "ballot",
                    "type": "tuple"
                },
                {
                    "internalType": "bytes",
                    "name": "signature",
                    "type": "bytes"
                }
            ],
            "name": "verify",
            "outputs": [
                {
                    "internalType": "bool",
                    "name": "",
                    "type": "bool"
                }
            ],
            "stateMutability": "view",
            "type": "function"
        },
        {
            "inputs": [
                {
                    "components": [
                        {
                            "internalType": "address",
                            "name": "from",
                            "type": "address"
                        },
                        {
                            "internalType": "uint128",
                            "name": "voteId",
                            "type": "uint128"
                        },
                        {
                            "internalType": "bytes",
                            "name": "data",
                            "type": "bytes"
                        }
                    ],
                    "internalType": "struct GovernedNFT.BallotMessage",
                    "name": "ballot",
                    "type": "tuple"
                },
                {
                    "internalType": "bytes",
                    "name": "signature",
                    "type": "bytes"
                },
                {
                    "internalType": "uint256",
                    "name": "id",
                    "type": "uint256"
                }
            ],
            "name": "vote",
            "outputs": [],
            "stateMutability": "nonpayable",
            "type": "function"
        },
        {
            "inputs": [],
            "name": "withdraw",
            "outputs": [],
            "stateMutability": "payable",
            "type": "function"
        },
        {
            "stateMutability": "payable",
            "type": "receive"
        }
    ],
    "bytecode": "6101406040523480156200001257600080fd5b50604051806020016040528060008152506040518060400160405280600b81526020016a11dbdd995c9b995913919560aa1b815250604051806040016040528060058152602001640312e302e360dc1b8152506200007f620000796200013d60201b60201c565b62000159565b6000805460ff60a01b19169055815160209283012081519183019190912060e08290526101008190524660a0818152604080517f8b73c3c69bb8fe3d512ecc4cf759cc79239f7b179b0ffacaa9a75d522b39400f818801819052818301969096526060810194909452608080850193909352308483018190528151808603909301835260c094850190915281519190950120905291909152610120526200012681620001a9565b50600780546001600160801b03191690556200038a565b600062000154620001bb60201b62001f381760201c565b905090565b600080546001600160a01b038381166001600160a01b0319831681178455604051919092169283917f8be0079c531659141344cd1fd0a4f28419497f9722a3daafe3b4186f6b6457e09190a35050565b6003620001b78282620002be565b5050565b60003033036200021357600080368080601f0160208091040260200160405190810160405280939291908181526020018383808284376000920191909152505050503601516001600160a01b03169150620002169050565b50335b90565b634e487b7160e01b600052604160045260246000fd5b600181811c908216806200024457607f821691505b6020821081036200026557634e487b7160e01b600052602260045260246000fd5b50919050565b601f821115620002b957600081815260208120601f850160051c81016020861015620002945750805b601f850160051c820191505b81811015620002b557828155600101620002a0565b5050505b505050565b81516001600160401b03811115620002da57620002da62000219565b620002f281620002eb84546200022f565b846200026b565b602080601f8311600181146200032a5760008415620003115750858301515b600019600386901b1c1916600185901b178555620002b5565b600085815260208120601f198616915b828110156200035b578886015182559484019460019091019084016200033a565b50858210156200037a5787850151600019600388901b60f8161c191681555b5050505050600190811b01905550565b60805160a05160c05160e05161010051610120516145d7620003da6000396000612dad01526000612dfc01526000612dd701526000612d3001526000612d5a01526000612d8401526145d76000f3fe6080604052600436106102285760003560e01c806374a8f10311610123578063c1b02179116100ab578063e985e9c51161006f578063e985e9c514610789578063ecd1617a146107d2578063f02425e8146107f2578063f242432a14610807578063f2fde38b1461082757600080fd5b8063c1b021791461066f578063c1fc8dbb1461068f578063cd1ce091146106bc578063d8f6d596146106dc578063da1b9e081461076957600080fd5b80638da5cb5b116100f25780638da5cb5b146105ad5780639a87c691146105d5578063a22cb465146105f5578063babcc53914610615578063bb4351e81461064f57600080fd5b806374a8f103146105435780637c48bbda146105635780638456cb5914610578578063862440e21461058d57600080fd5b806338c42ae4116101b15780634ec5d27e116101755780634ec5d27e146104a25780635c975abb146104c257806369d2fabe146104e15780636c5a454214610501578063715018a61461052e57600080fd5b806338c42ae4146103ed5780633ccfd60b146104415780633f4ba83a146104495780634219701b1461045e5780634e1273f41461048257600080fd5b80630e89341c116101f85780630e89341c1461031457806314ce65381461034157806321cda790146103615780632a55205a1461038e5780632eb2c2d6146103cd57600080fd5b8062fdd58e1461026c57806301ffc9a71461029f5780630242f351146102cf57806308dc9f42146102f257600080fd5b3661026757604080513381523460208201527f52a6cdf67c40ce333b3d846e4e143db87f71dd7935612a4cafcf6ba76047ca1f910160405180910390a1005b600080fd5b34801561027857600080fd5b5061028c6102873660046134b9565b610847565b6040519081526020015b60405180910390f35b3480156102ab57600080fd5b506102bf6102ba3660046134f9565b6108e2565b6040519015158152602001610296565b3480156102db57600080fd5b506102e46108ed565b604051610296929190613563565b3480156102fe57600080fd5b5061031261030d36600461366d565b6109fe565b005b34801561032057600080fd5b5061033461032f3660046136bc565b610a54565b60405161029691906136d5565b34801561034d57600080fd5b506102bf61035c366004613741565b610b23565b34801561036d57600080fd5b5061038161037c3660046137a9565b610fc1565b60405161029691906137ff565b34801561039a57600080fd5b506103ae6103a9366004613812565b610fe5565b604080516001600160a01b039093168352602083019190915201610296565b3480156103d957600080fd5b506103126103e83660046138c8565b611093565b3480156103f957600080fd5b506102bf610408366004613986565b6001600160a01b03821660009081526006602090815260408083206001600160801b038516845260010190915290205460ff1692915050565b6103126110f1565b34801561045557600080fd5b50610312611128565b34801561046a57600080fd5b506103ae6010546011546001600160a01b0390911691565b34801561048e57600080fd5b5061038161049d3660046139bd565b61113a565b3480156104ae57600080fd5b506103126104bd366004613a9d565b611263565b3480156104ce57600080fd5b50600054600160a01b900460ff166102bf565b3480156104ed57600080fd5b506103126104fc366004613ac2565b6112da565b34801561050d57600080fd5b5061028c61051c3660046136bc565b6000908152600e602052604090205490565b34801561053a57600080fd5b506103126115c5565b34801561054f57600080fd5b5061031261055e3660046137a9565b6115d7565b34801561056f57600080fd5b50610381611603565b34801561058457600080fd5b5061031261165b565b34801561059957600080fd5b506103126105a8366004613b31565b61166b565b3480156105b957600080fd5b506000546040516001600160a01b039091168152602001610296565b3480156105e157600080fd5b506103126105f03660046134b9565b611683565b34801561060157600080fd5b50610312610610366004613b6d565b611702565b34801561062157600080fd5b506102bf6106303660046137a9565b6001600160a01b031660009081526006602052604090205460ff161590565b34801561065b57600080fd5b5061031261066a366004613b9e565b611718565b34801561067b57600080fd5b5061031261068a366004613c1b565b6117a8565b34801561069b57600080fd5b506106af6106aa366004613c85565b6119c1565b6040516102969190613ca2565b3480156106c857600080fd5b506102e46106d7366004613c85565b611b0a565b3480156106e857600080fd5b506106fc6106f73660046136bc565b611c24565b6040516102969190815181526020808301516001600160801b03169082015260408083015160ff16908201526060808301516001600160e81b031916908201526080808301516001600160f81b03199081169183019190915260a092830151169181019190915260c00190565b34801561077557600080fd5b50610312610784366004613d4f565b611cf1565b34801561079557600080fd5b506102bf6107a4366004613d8b565b6001600160a01b03918216600090815260026020908152604080832093909416825291909152205460ff1690565b3480156107de57600080fd5b506103126107ed366004613dbe565b611cfd565b3480156107fe57600080fd5b50610334611de2565b34801561081357600080fd5b50610312610822366004613df6565b611e6b565b34801561083357600080fd5b506103126108423660046137a9565b611ec2565b60006001600160a01b0383166108b75760405162461bcd60e51b815260206004820152602a60248201527f455243313135353a2061646472657373207a65726f206973206e6f742061207660448201526930b634b21037bbb732b960b11b60648201526084015b60405180910390fd5b5060008181526001602090815260408083206001600160a01b03861684529091529020545b92915050565b60006108dc82611f94565b600061091a6040518060800160405280600081526020016000815260200160608152602001600081525090565b6007546001600160801b031660008181526008602090815260409182902082516080810184528154815260018201549281019290925260028101805491938492908401919061096890613e5a565b80601f016020809104026020016040519081016040528092919081815260200182805461099490613e5a565b80156109e15780601f106109b6576101008083540402835291602001916109e1565b820191906000526020600020905b8154815290600101906020018083116109c457829003601f168201915b505050505081526020016003820154815250509050915091509091565b610a06611fb9565b6000838152600e602052604090205415610a325760405162461bcd60e51b81526004016108ae90613e8e565b610a4f610a476000546001600160a01b031690565b848484612032565b505050565b6000818152600b60205260409020805460609190610a7190613e5a565b159050610b16576000828152600b602052604090208054610a9190613e5a565b80601f0160208091040260200160405190810160405280929190818152602001828054610abd90613e5a565b8015610b0a5780601f10610adf57610100808354040283529160200191610b0a565b820191906000526020600020905b815481529060010190602001808311610aed57829003601f168201915b50505050509050919050565b600c8054610a9190613e5a565b600080600881610b396040880160208901613c85565b6001600160801b03166001600160801b031681526020019081526020016000206040518060800160405290816000820154815260200160018201548152602001600282018054610b8890613e5a565b80601f0160208091040260200160405190810160405280929190818152602001828054610bb490613e5a565b8015610c015780601f10610bd657610100808354040283529160200191610c01565b820191906000526020600020905b815481529060010190602001808311610be457829003601f168201915b5050505050815260200160038201548152505090508060000151600003610c7a5760405162461bcd60e51b815260206004820152602760248201527f476f7665726e65644e46543a207468697320766f7465496420646f6573206e6f6044820152661d08195e1a5cdd60ca1b60648201526084016108ae565b60066000610c8b60208801886137a9565b6001600160a01b0316815260208101919091526040016000205460ff1615610d115760405162461bcd60e51b815260206004820152603360248201527f476f7665726e65644e46543a207468697320696e646976696475616c206973206044820152726e6f7420616c6c6f77656420746f20766f746560681b60648201526084016108ae565b60066000610d2260208801886137a9565b6001600160a01b03166001600160a01b031681526020019081526020016000206001016000866020016020810190610d5a9190613c85565b6001600160801b0316815260208101919091526040016000205460ff1615610ddb5760405162461bcd60e51b815260206004820152602e60248201527f476f7665726e65644e46543a207468697320696e646976696475616c2068617360448201526d08185b1c9958591e481d9bdd195960921b60648201526084016108ae565b80514211610e3a5760405162461bcd60e51b815260206004820152602660248201527f476f7665726e65644e46543a207468697320766f7465206973206e6f742079656044820152653a1037b832b760d11b60648201526084016108ae565b80602001514210610ea05760405162461bcd60e51b815260206004820152602a60248201527f476f7665726e65644e46543a207468697320766f7465206973206e6f74206f70604482015269656e20616e796d6f726560b01b60648201526084016108ae565b6000610f9b85858080601f016020809104026020016040519081016040528093929190818152602001838380828437600092019190915250610f9592507f9fa823d86348b9edce249274f703fc4b6026142167ffe72cd90a5ca74827fa979150610f0f905060208b018b6137a9565b610f1f60408c0160208d01613c85565b610f2c60408d018d613edb565b604051610f3a929190613f21565b604051908190038120610f7a949392916020019384526001600160a01b039290921660208401526001600160801b03166040830152606082015260800190565b60405160208183030381529060405280519060200120612137565b90612185565b9050610faa60208701876137a9565b6001600160a01b0391821691161495945050505050565b6001600160a01b0381166000908152600d602052604090206060906108dc906121a1565b60008281526005602090815260408083208151808301909252546001600160a01b038116808352600160a01b9091046001600160601b031692820192909252829161105a5750604080518082019091526004546001600160a01b0381168252600160a01b90046001600160601b031660208201525b602081015160009061271090611079906001600160601b031687613f47565b6110839190613f5e565b91519350909150505b9250929050565b61109b6121fc565b6001600160a01b0316856001600160a01b031614806110c157506110c1856107a46121fc565b6110dd5760405162461bcd60e51b81526004016108ae90613f80565b6110ea858585858561220b565b5050505050565b6110f9611fb9565b60405133904780156108fc02916000818181858888f19350505050158015611125573d6000803e3d6000fd5b50565b611130611fb9565b6111386123d1565b565b6060815183511461119f5760405162461bcd60e51b815260206004820152602960248201527f455243313135353a206163636f756e747320616e6420696473206c656e677468604482015268040dad2e6dac2e8c6d60bb1b60648201526084016108ae565b600083516001600160401b038111156111ba576111ba6135b8565b6040519080825280602002602001820160405280156111e3578160200160208202803683370190505b50905060005b845181101561125b5761122e85828151811061120757611207613fcf565b602002602001015185838151811061122157611221613fcf565b6020026020010151610847565b82828151811061124057611240613fcf565b602090810291909101015261125481613fe5565b90506111e9565b509392505050565b61126b611fb9565b6000828152600a602090815260409182902060018101805460ff60a81b1916600160a81b60f887901c021790555491516001600160f81b03198416815284917f055ab1e6058a5c223b6a969d1acb726532ffbcf17e0c9c853961409d74260b6d91015b60405180910390a35050565b6112f06112ea60208601866137a9565b82610847565b60000361135d5760405162461bcd60e51b815260206004820152603560248201527f476f7665726e65644e46543a207468697320696e646976696475616c206973206044820152743737ba1037bbb734b733903a3430ba103a37b5b2b760591b60648201526084016108ae565b611368848484610b23565b6113b45760405162461bcd60e51b815260206004820152601960248201527f476f7665726e65644e46543a20696e76616c696420766f74650000000000000060448201526064016108ae565b600960006113c86040870160208801613c85565b6001600160801b03166001600160801b031681526020019081526020016000206040518060a0016040528086600001602081019061140691906137a9565b6001600160a01b0316815260200183815260200186806040019061142a9190613edb565b61143391613ffe565b6001600160801b031916815260200185858080601f01602080910402602001604051908101604052809392919081815260200183838082843760009201829052509385525050426020938401525083546001808201865594825290829020835160059092020180546001600160a01b0319166001600160a01b03909216919091178155908201519281019290925560408101516002830180546001600160801b03191660809290921c919091179055606081015190919060038201906114f99082614074565b506080919091015160049091015560016006600061151a60208801886137a9565b6001600160a01b03166001600160a01b0316815260200190815260200160002060010160008660200160208101906115529190613c85565b6001600160801b03168152602080820192909252604001600020805460ff191692151592909217909155819061158a908601866137a9565b6001600160a01b03167f9102be182515b5e047eb5e72c098572104d73b31b52b9766d92b745fcf4323b160405160405180910390a350505050565b6115cd611fb9565b611138600061242c565b6115df611fb9565b6001600160a01b03166000908152600660205260409020805460ff19166001179055565b6060600f80548060200260200160405190810160405280929190818152602001828054801561165157602002820191906000526020600020905b81548152602001906001019080831161163d575b5050505050905090565b611663611fb9565b61113861247c565b6000828152600b60205260409020610a4f8282614074565b61168b611fb9565b6116a86116a06000546001600160a01b031690565b8360016124c0565b6011819055601080546001600160a01b0319166001600160a01b0384169081179091556040518281527f2c4f5092bd94f3258727fe2a7facc03052b20110c7a44c99a1dea390591c30949060200160405180910390a25050565b61171461170d6121fc565b83836124c0565b5050565b611720611fb9565b60005b835181101561178a57600e600085838151811061174257611742613fcf565b60200260200101518152602001908152602001600020546000146117785760405162461bcd60e51b81526004016108ae90613e8e565b8061178281613fe5565b915050611723565b50610a4f6117a06000546001600160a01b031690565b8484846125a0565b6117b0611fb9565b6007546001600160801b03908116908616116118435760405162461bcd60e51b815260206004820152604660248201527f476f7665726e65644e46543a20746865206e657720766f7465206d757374206860448201527f6176652061206c6172676572206964207468616e207468652070726576696f7560648201526573206f6e657360d01b608482015260a4016108ae565b8383116118aa5760405162461bcd60e51b815260206004820152602f60248201527f476f7665726e65644e46543a2074686520656e642063616e6e6f74206265206260448201526e19599bdc99481d1a19481cdd185c9d608a1b60648201526084016108ae565b42831161190c5760405162461bcd60e51b815260206004820152602a60248201527f476f7665726e65644e46543a2074686520656e642063616e6e6f7420626520696044820152691b881d1a19481c185cdd60b21b60648201526084016108ae565b600780546001600160801b0319166001600160801b0387169081179091556040805160808101825286815260208082018781528284018781526060840187905260009586526008909252929093208151815591516001830155915160028201906119769082614074565b50606091909101516003909101556040516001600160801b0386169033907fccd4c40116da2cb431ad9853b586e4a4bb304aeda0a5b2dabaaa51da136cf4ad90600090a35050505050565b6001600160801b0381166000908152600960209081526040808320805482518185028101850190935280835260609492939192909184015b82821015611aff5760008481526020908190206040805160a0810182526005860290920180546001600160a01b03168352600181015493830193909352600283015460801b6001600160801b03191690820152600382018054919291606084019190611a6490613e5a565b80601f0160208091040260200160405190810160405280929190818152602001828054611a9090613e5a565b8015611add5780601f10611ab257610100808354040283529160200191611add565b820191906000526020600020905b815481529060010190602001808311611ac057829003601f168201915b50505050508152602001600482015481525050815260200190600101906119f9565b505050509050919050565b6000611b376040518060800160405280600081526020016000815260200160608152602001600081525090565b8260086000856001600160801b03166001600160801b03168152602001908152602001600020806040518060800160405290816000820154815260200160018201548152602001600282018054611b8d90613e5a565b80601f0160208091040260200160405190810160405280929190818152602001828054611bb990613e5a565b8015611c065780601f10611bdb57610100808354040283529160200191611c06565b820191906000526020600020905b815481529060010190602001808311611be957829003601f168201915b50505050508152602001600382015481525050905091509150915091565b6040805160c081018252600080825260208201819052918101829052606081018290526080810182905260a0810191909152611c5e611fb9565b506000818152600a6020908152604091829020825160c081018452815481526001909101546001600160801b0381169282019290925260ff600160801b830416928101929092526001600160e81b0319600160881b820460e81b1660608301526001600160f81b0319600160a01b820460f890811b82166080850152600160a81b90920490911b1660a08201525b919050565b600c6117148282614074565b611d05611fb9565b6000828152600a602052604090208190611d1f8282614158565b50508035827f4d06adcc78cbf1837adc1d90122283c59fc77d3eef2c4e3eb4a7730f7ae9e4b4611d556040850160208601613c85565b611d656060860160408701614206565b611d756080870160608801614223565b611d8560a0880160808901614240565b611d9560c0890160a08a01614240565b604080516001600160801b03909616865260ff90941660208601526001600160e81b0319909216928401929092526001600160f81b0319918216606084015216608082015260a0016112ce565b6060600c8054611df190613e5a565b80601f0160208091040260200160405190810160405280929190818152602001828054611e1d90613e5a565b80156116515780601f10611e3f57610100808354040283529160200191611651565b820191906000526020600020905b815481529060010190602001808311611e4d57509395945050505050565b611e736121fc565b6001600160a01b0316856001600160a01b03161480611e995750611e99856107a46121fc565b611eb55760405162461bcd60e51b81526004016108ae90613f80565b6110ea8585858585612715565b611eca611fb9565b6001600160a01b038116611f2f5760405162461bcd60e51b815260206004820152602660248201527f4f776e61626c653a206e6577206f776e657220697320746865207a65726f206160448201526564647265737360d01b60648201526084016108ae565b6111258161242c565b6000303303611f8e57600080368080601f0160208091040260200160405190810160405280939291908181526020018383808284376000920191909152505050503601516001600160a01b03169150611f919050565b50335b90565b60006001600160e01b0319821663152a902d60e11b14806108dc57506108dc8261286a565b611fc16121fc565b6001600160a01b0316611fdc6000546001600160a01b031690565b6001600160a01b0316146111385760405162461bcd60e51b815260206004820181905260248201527f4f776e61626c653a2063616c6c6572206973206e6f7420746865206f776e657260448201526064016108ae565b6001600160a01b0384166120585760405162461bcd60e51b81526004016108ae9061425d565b60006120626121fc565b9050600061206f856128ba565b9050600061207c856128ba565b905061208d83600089858589612905565b60008681526001602090815260408083206001600160a01b038b168452909152812080548792906120bf90849061429e565b909155505060408051878152602081018790526001600160a01b03808a1692600092918716917fc3d58168c5ae7397731d063d5bbf3d657854427343f4c083240f7aacaa2d0f62910160405180910390a461211f83600089858589612a20565b61212e83600089898989612bc8565b50505050505050565b60006108dc612144612d23565b8360405161190160f01b6020820152602281018390526042810182905260009060620160405160208183030381529060405280519060200120905092915050565b60008060006121948585612e4a565b9150915061125b81612e8c565b606081600101805480602002602001604051908101604052809291908181526020018280548015610b0a57602002820191906000526020600020905b8154815260200190600101908083116121dd5750505050509050919050565b6000612206611f38565b905090565b815183511461222c5760405162461bcd60e51b81526004016108ae906142b1565b6001600160a01b0384166122525760405162461bcd60e51b81526004016108ae906142f9565b600061225c6121fc565b905061226c818787878787612905565b60005b845181101561235557600085828151811061228c5761228c613fcf565b6020026020010151905060008583815181106122aa576122aa613fcf565b60209081029190910181015160008481526001835260408082206001600160a01b038e1683529093529190912054909150818110156122fb5760405162461bcd60e51b81526004016108ae9061433e565b60008381526001602090815260408083206001600160a01b038e8116855292528083208585039055908b1682528120805484929061233a90849061429e565b925050819055505050508061234e90613fe5565b905061226f565b50846001600160a01b0316866001600160a01b0316826001600160a01b03167f4a39dc06d4c0dbc64b70af90fd698a233a518aa5d07e595d983b8c0526c8f7fb87876040516123a5929190614388565b60405180910390a46123bb818787878787612a20565b6123c9818787878787613042565b505050505050565b6123d96130fd565b6000805460ff60a01b191690557f5db9ee0a495bf2e6ff9c91a7834c1ba4fdd244a5e8aa4e537bd38aeae4b073aa61240f6121fc565b6040516001600160a01b03909116815260200160405180910390a1565b600080546001600160a01b038381166001600160a01b0319831681178455604051919092169283917f8be0079c531659141344cd1fd0a4f28419497f9722a3daafe3b4186f6b6457e09190a35050565b61248461314d565b6000805460ff60a01b1916600160a01b1790557f62e78cea01bee320cd4e420270b5ea74000d11b0c9f74754ebdbfc544b05a25861240f6121fc565b816001600160a01b0316836001600160a01b0316036125335760405162461bcd60e51b815260206004820152602960248201527f455243313135353a2073657474696e6720617070726f76616c20737461747573604482015268103337b91039b2b63360b91b60648201526084016108ae565b6001600160a01b03838116600081815260026020908152604080832094871680845294825291829020805460ff191686151590811790915591519182527f17307eab39ab6107e8899845ad3d59bd9653f200f220920489ca2b5937696c31910160405180910390a3505050565b6001600160a01b0384166125c65760405162461bcd60e51b81526004016108ae9061425d565b81518351146125e75760405162461bcd60e51b81526004016108ae906142b1565b60006125f16121fc565b905061260281600087878787612905565b60005b845181101561269e5783818151811061262057612620613fcf565b60200260200101516001600087848151811061263e5761263e613fcf565b602002602001015181526020019081526020016000206000886001600160a01b03166001600160a01b031681526020019081526020016000206000828254612686919061429e565b9091555081905061269681613fe5565b915050612605565b50846001600160a01b031660006001600160a01b0316826001600160a01b03167f4a39dc06d4c0dbc64b70af90fd698a233a518aa5d07e595d983b8c0526c8f7fb87876040516126ef929190614388565b60405180910390a461270681600087878787612a20565b6110ea81600087878787613042565b6001600160a01b03841661273b5760405162461bcd60e51b81526004016108ae906142f9565b60006127456121fc565b90506000612752856128ba565b9050600061275f856128ba565b905061276f838989858589612905565b60008681526001602090815260408083206001600160a01b038c168452909152902054858110156127b25760405162461bcd60e51b81526004016108ae9061433e565b60008781526001602090815260408083206001600160a01b038d8116855292528083208985039055908a168252812080548892906127f190849061429e565b909155505060408051888152602081018890526001600160a01b03808b16928c821692918816917fc3d58168c5ae7397731d063d5bbf3d657854427343f4c083240f7aacaa2d0f62910160405180910390a4612851848a8a86868a612a20565b61285f848a8a8a8a8a612bc8565b505050505050505050565b60006001600160e01b03198216636cdb3d1360e11b148061289b57506001600160e01b031982166303a24d0760e21b145b806108dc57506301ffc9a760e01b6001600160e01b03198316146108dc565b604080516001808252818301909252606091600091906020808301908036833701905050905082816000815181106128f4576128f4613fcf565b602090810291909101015292915050565b600054600160a01b900460ff16156129705760405162461bcd60e51b815260206004820152602860248201527f476f7665726e65644e46543a20746f6b656e207472616e73666572207768696c60448201526719481c185d5cd95960c21b60648201526084016108ae565b6000546001600160a01b03878116911614158061298e575060115442115b806129a057506001600160a01b038516155b6123c95760405162461bcd60e51b815260206004820152604560248201527f476f7665726e65644e46543a20746f6b656e207472616e73666572206e6f742060448201527f616c6c6f77656420647572696e6720746865206578636c757369766974792070606482015264195c9a5bd960da1b608482015260a4016108ae565b60005b8351811015612b2d57612a7c848281518110612a4157612a41613fcf565b6020026020010151600d6000886001600160a01b03166001600160a01b0316815260200190815260200160002061319a90919063ffffffff16565b506001600160a01b038616612b1b57828181518110612a9d57612a9d613fcf565b6020026020010151600e6000868481518110612abb57612abb613fcf565b602002602001015181526020019081526020016000206000828254612ae0919061429e565b92505081905550600f848281518110612afb57612afb613fcf565b602090810291909101810151825460018101845560009384529190922001555b80612b2581613fe5565b915050612a23565b506001600160a01b038516156123c95760005b835181101561212e57612b5f8685838151811061122157611221613fcf565b600003612bb657612bb6848281518110612b7b57612b7b613fcf565b6020026020010151600d6000896001600160a01b03166001600160a01b0316815260200190815260200160002061324990919063ffffffff16565b80612bc081613fe5565b915050612b40565b6001600160a01b0384163b156123c95760405163f23a6e6160e01b81526001600160a01b0385169063f23a6e6190612c0c90899089908890889088906004016143b6565b6020604051808303816000875af1925050508015612c47575060408051601f3d908101601f19168201909252612c44918101906143fb565b60015b612cf357612c53614418565b806308c379a003612c8c5750612c67614433565b80612c725750612c8e565b8060405162461bcd60e51b81526004016108ae91906136d5565b505b60405162461bcd60e51b815260206004820152603460248201527f455243313135353a207472616e7366657220746f206e6f6e20455243313135356044820152732932b1b2b4bb32b91034b6b83632b6b2b73a32b960611b60648201526084016108ae565b6001600160e01b0319811663f23a6e6160e01b1461212e5760405162461bcd60e51b81526004016108ae906144bc565b6000306001600160a01b037f000000000000000000000000000000000000000000000000000000000000000016148015612d7c57507f000000000000000000000000000000000000000000000000000000000000000046145b15612da657507f000000000000000000000000000000000000000000000000000000000000000090565b50604080517f00000000000000000000000000000000000000000000000000000000000000006020808301919091527f0000000000000000000000000000000000000000000000000000000000000000828401527f000000000000000000000000000000000000000000000000000000000000000060608301524660808301523060a0808401919091528351808403909101815260c0909201909252805191012090565b6000808251604103612e805760208301516040840151606085015160001a612e7487828585613365565b9450945050505061108c565b5060009050600261108c565b6000816004811115612ea057612ea0614504565b03612ea85750565b6001816004811115612ebc57612ebc614504565b03612f095760405162461bcd60e51b815260206004820152601860248201527f45434453413a20696e76616c6964207369676e6174757265000000000000000060448201526064016108ae565b6002816004811115612f1d57612f1d614504565b03612f6a5760405162461bcd60e51b815260206004820152601f60248201527f45434453413a20696e76616c6964207369676e6174757265206c656e6774680060448201526064016108ae565b6003816004811115612f7e57612f7e614504565b03612fd65760405162461bcd60e51b815260206004820152602260248201527f45434453413a20696e76616c6964207369676e6174757265202773272076616c604482015261756560f01b60648201526084016108ae565b6004816004811115612fea57612fea614504565b036111255760405162461bcd60e51b815260206004820152602260248201527f45434453413a20696e76616c6964207369676e6174757265202776272076616c604482015261756560f01b60648201526084016108ae565b6001600160a01b0384163b156123c95760405163bc197c8160e01b81526001600160a01b0385169063bc197c8190613086908990899088908890889060040161451a565b6020604051808303816000875af19250505080156130c1575060408051601f3d908101601f191682019092526130be918101906143fb565b60015b6130cd57612c53614418565b6001600160e01b0319811663bc197c8160e01b1461212e5760405162461bcd60e51b81526004016108ae906144bc565b600054600160a01b900460ff166111385760405162461bcd60e51b815260206004820152601460248201527314185d5cd8589b194e881b9bdd081c185d5cd95960621b60448201526064016108ae565b600054600160a01b900460ff16156111385760405162461bcd60e51b815260206004820152601060248201526f14185d5cd8589b194e881c185d5cd95960821b60448201526064016108ae565b6000816000036131f85760405162461bcd60e51b815260206004820152602360248201527f556e6f7264657265644b6579536574202d204b65792063616e6e6f742062652060448201526203078360ec1b60648201526084016108ae565b6132028383613452565b1561320f575060006108dc565b60018084018054808301825560008281526020902001849055546132339190614578565b6000928352602093909352506040902055600190565b6132538282613452565b6132b85760405162461bcd60e51b815260206004820152603060248201527f556e6f7264657265644b6579536574202d204b657920646f6573206e6f74206560448201526f3c34b9ba1034b7103a34329039b2ba1760811b60648201526084016108ae565b600182810180546000926132cb91614578565b815481106132db576132db613fcf565b600091825260208083209091015484835290859052604080832054828452922082905560018501805491935083918390811061331957613319613fcf565b6000918252602080832090910192909255848152908590526040812055600184018054806133495761334961458b565b6001900381819060005260206000200160009055905550505050565b6000807f7fffffffffffffffffffffffffffffff5d576e7357a4501ddfe92f46681b20a083111561339c5750600090506003613449565b8460ff16601b141580156133b457508460ff16601c14155b156133c55750600090506004613449565b6040805160008082526020820180845289905260ff881692820192909252606081018690526080810185905260019060a0016020604051602081039080840390855afa158015613419573d6000803e3d6000fd5b5050604051601f1901519150506001600160a01b03811661344257600060019250925050613449565b9150600090505b94509492505050565b60018201546000908103613468575060006108dc565b600082815260208490526040902054600184018054849290811061348e5761348e613fcf565b906000526020600020015414905092915050565b80356001600160a01b0381168114611cec57600080fd5b600080604083850312156134cc57600080fd5b6134d5836134a2565b946020939093013593505050565b6001600160e01b03198116811461112557600080fd5b60006020828403121561350b57600080fd5b8135613516816134e3565b9392505050565b6000815180845260005b8181101561354357602081850181015186830182015201613527565b506000602082860101526020601f19601f83011685010191505092915050565b6001600160801b0383168152604060208201528151604082015260208201516060820152600060408301516080808401526135a160c084018261351d565b9050606084015160a0840152809150509392505050565b634e487b7160e01b600052604160045260246000fd5b601f8201601f191681016001600160401b03811182821017156135f3576135f36135b8565b6040525050565b600082601f83011261360b57600080fd5b81356001600160401b03811115613624576136246135b8565b60405161363b601f8301601f1916602001826135ce565b81815284602083860101111561365057600080fd5b816020850160208301376000918101602001919091529392505050565b60008060006060848603121561368257600080fd5b833592506020840135915060408401356001600160401b038111156136a657600080fd5b6136b2868287016135fa565b9150509250925092565b6000602082840312156136ce57600080fd5b5035919050565b602081526000613516602083018461351d565b6000606082840312156136fa57600080fd5b50919050565b60008083601f84011261371257600080fd5b5081356001600160401b0381111561372957600080fd5b60208301915083602082850101111561108c57600080fd5b60008060006040848603121561375657600080fd5b83356001600160401b038082111561376d57600080fd5b613779878388016136e8565b9450602086013591508082111561378f57600080fd5b5061379c86828701613700565b9497909650939450505050565b6000602082840312156137bb57600080fd5b613516826134a2565b600081518084526020808501945080840160005b838110156137f4578151875295820195908201906001016137d8565b509495945050505050565b60208152600061351660208301846137c4565b6000806040838503121561382557600080fd5b50508035926020909101359150565b60006001600160401b0382111561384d5761384d6135b8565b5060051b60200190565b600082601f83011261386857600080fd5b8135602061387582613834565b60405161388282826135ce565b83815260059390931b85018201928281019150868411156138a257600080fd5b8286015b848110156138bd57803583529183019183016138a6565b509695505050505050565b600080600080600060a086880312156138e057600080fd5b6138e9866134a2565b94506138f7602087016134a2565b935060408601356001600160401b038082111561391357600080fd5b61391f89838a01613857565b9450606088013591508082111561393557600080fd5b61394189838a01613857565b9350608088013591508082111561395757600080fd5b50613964888289016135fa565b9150509295509295909350565b6001600160801b038116811461112557600080fd5b6000806040838503121561399957600080fd5b6139a2836134a2565b915060208301356139b281613971565b809150509250929050565b600080604083850312156139d057600080fd5b82356001600160401b03808211156139e757600080fd5b818501915085601f8301126139fb57600080fd5b81356020613a0882613834565b604051613a1582826135ce565b83815260059390931b8501820192828101915089841115613a3557600080fd5b948201945b83861015613a5a57613a4b866134a2565b82529482019490820190613a3a565b96505086013592505080821115613a7057600080fd5b50613a7d85828601613857565b9150509250929050565b6001600160f81b03198116811461112557600080fd5b60008060408385031215613ab057600080fd5b8235915060208301356139b281613a87565b60008060008060608587031215613ad857600080fd5b84356001600160401b0380821115613aef57600080fd5b613afb888389016136e8565b95506020870135915080821115613b1157600080fd5b50613b1e87828801613700565b9598909750949560400135949350505050565b60008060408385031215613b4457600080fd5b8235915060208301356001600160401b03811115613b6157600080fd5b613a7d858286016135fa565b60008060408385031215613b8057600080fd5b613b89836134a2565b9150602083013580151581146139b257600080fd5b600080600060608486031215613bb357600080fd5b83356001600160401b0380821115613bca57600080fd5b613bd687838801613857565b94506020860135915080821115613bec57600080fd5b613bf887838801613857565b93506040860135915080821115613c0e57600080fd5b506136b2868287016135fa565b600080600080600060a08688031215613c3357600080fd5b8535613c3e81613971565b9450602086013593506040860135925060608601356001600160401b03811115613c6757600080fd5b613c73888289016135fa565b95989497509295608001359392505050565b600060208284031215613c9757600080fd5b813561351681613971565b60006020808301818452808551808352604092508286019150828160051b87010184880160005b83811015613d4157888303603f19018552815180516001600160a01b031684528781015188850152868101516001600160801b0319168785015260608082015160a08287018190529190613d1f8388018261351d565b6080948501519790940196909652505094870194925090860190600101613cc9565b509098975050505050505050565b600060208284031215613d6157600080fd5b81356001600160401b03811115613d7757600080fd5b613d83848285016135fa565b949350505050565b60008060408385031215613d9e57600080fd5b613da7836134a2565b9150613db5602084016134a2565b90509250929050565b60008082840360e0811215613dd257600080fd5b8335925060c0601f1982011215613de857600080fd5b506020830190509250929050565b600080600080600060a08688031215613e0e57600080fd5b613e17866134a2565b9450613e25602087016134a2565b9350604086013592506060860135915060808601356001600160401b03811115613e4e57600080fd5b613964888289016135fa565b600181811c90821680613e6e57607f821691505b6020821081036136fa57634e487b7160e01b600052602260045260246000fd5b6020808252602d908201527f476f7665726e65644e46543a2063616e6e6f742072652d6d696e7420616e206560408201526c3c34b9ba34b733903a37b5b2b760991b606082015260800190565b6000808335601e19843603018112613ef257600080fd5b8301803591506001600160401b03821115613f0c57600080fd5b60200191503681900382131561108c57600080fd5b8183823760009101908152919050565b634e487b7160e01b600052601160045260246000fd5b80820281158282048414176108dc576108dc613f31565b600082613f7b57634e487b7160e01b600052601260045260246000fd5b500490565b6020808252602f908201527f455243313135353a2063616c6c6572206973206e6f7420746f6b656e206f776e60408201526e195c881b9bdc88185c1c1c9bdd9959608a1b606082015260800190565b634e487b7160e01b600052603260045260246000fd5b600060018201613ff757613ff7613f31565b5060010190565b6001600160801b031981358181169160108510156140265780818660100360031b1b83161692505b505092915050565b601f821115610a4f57600081815260208120601f850160051c810160208610156140555750805b601f850160051c820191505b818110156123c957828155600101614061565b81516001600160401b0381111561408d5761408d6135b8565b6140a18161409b8454613e5a565b8461402e565b602080601f8311600181146140d657600084156140be5750858301515b600019600386901b1c1916600185901b1785556123c9565b600085815260208120601f198616915b82811015614105578886015182559484019460019091019084016140e6565b50858210156141235787850151600019600388901b60f8161c191681555b5050505050600190811b01905550565b60ff8116811461112557600080fd5b6001600160e81b03198116811461112557600080fd5b8135815560018101602083013561416e81613971565b8154604085013561417e81614133565b606086013561418c81614142565b608087013561419a81613a87565b60a08801356141a881613a87565b60589190911c60ff60a01b1660609290921c62ffffff60881b166001600160b01b03199094166001600160801b03959095169490941760809290921b60ff60801b1691909117919091171760509190911c60ff60a81b161790555050565b60006020828403121561421857600080fd5b813561351681614133565b60006020828403121561423557600080fd5b813561351681614142565b60006020828403121561425257600080fd5b813561351681613a87565b60208082526021908201527f455243313135353a206d696e7420746f20746865207a65726f206164647265736040820152607360f81b606082015260800190565b808201808211156108dc576108dc613f31565b60208082526028908201527f455243313135353a2069647320616e6420616d6f756e7473206c656e677468206040820152670dad2e6dac2e8c6d60c31b606082015260800190565b60208082526025908201527f455243313135353a207472616e7366657220746f20746865207a65726f206164604082015264647265737360d81b606082015260800190565b6020808252602a908201527f455243313135353a20696e73756666696369656e742062616c616e636520666f60408201526939103a3930b739b332b960b11b606082015260800190565b60408152600061439b60408301856137c4565b82810360208401526143ad81856137c4565b95945050505050565b6001600160a01b03868116825285166020820152604081018490526060810183905260a0608082018190526000906143f09083018461351d565b979650505050505050565b60006020828403121561440d57600080fd5b8151613516816134e3565b600060033d1115611f915760046000803e5060005160e01c90565b600060443d10156144415790565b6040516003193d81016004833e81513d6001600160401b03816024840111818411171561447057505050505090565b82850191508151818111156144885750505050505090565b843d87010160208285010111156144a25750505050505090565b6144b1602082860101876135ce565b509095945050505050565b60208082526028908201527f455243313135353a204552433131353552656365697665722072656a656374656040820152676420746f6b656e7360c01b606082015260800190565b634e487b7160e01b600052602160045260246000fd5b6001600160a01b0386811682528516602082015260a060408201819052600090614546908301866137c4565b828103606084015261455881866137c4565b9050828103608084015261456c818561351d565b98975050505050505050565b818103818111156108dc576108dc613f31565b634e487b7160e01b600052603160045260246000fdfea26469706673582212200e5156d801ca69a19d3fdfd3b216c11a9674bd9a82d979babf94a8656478835f64736f6c63430008110033",
    "sourcePath": "/home/philippe/Desktop/nft4Art/PoS/server/contracts/GovernedNFT.sol",
    "compiler": {
        "name": "solc",
        "version": "0.8.17+commit.8df45f5f"
    },
    "functionHashes": {
        "balanceOf(address,uint256)": "00fdd58e",
        "balanceOfBatch(address[],uint256[])": "4e1273f4",
        "getBallots(uint128)": "c1fc8dbb",
        "getDefaultURi()": "f02425e8",
        "getExclusivityForAll()": "4219701b",
        "getSale(uint256)": "d8f6d596",
        "getVote()": "0242f351",
        "getVoteById(uint128)": "cd1ce091",
        "hasVoted(address,uint128)": "38c42ae4",
        "isAllowed(address)": "babcc539",
        "isApprovedForAll(address,address)": "e985e9c5",
        "mint(uint256,uint256,bytes)": "08dc9f42",
        "mintBatch(uint256[],uint256[],bytes)": "bb4351e8",
        "numberOfPieces(uint256)": "6c5a4542",
        "owner()": "8da5cb5b",
        "pause()": "8456cb59",
        "paused()": "5c975abb",
        "renounceOwnership()": "715018a6",
        "revoke(address)": "74a8f103",
        "royaltyInfo(uint256,uint256)": "2a55205a",
        "safeBatchTransferFrom(address,address,uint256[],uint256[],bytes)": "2eb2c2d6",
        "safeTransferFrom(address,address,uint256,uint256,bytes)": "f242432a",
        "saleRecord(uint256,(bytes32,uint128,uint8,bytes3,bytes1,bytes1))": "ecd1617a",
        "saleUpdate(uint256,bytes1)": "4ec5d27e",
        "setApprovalForAll(address,bool)": "a22cb465",
        "setDefaultURI(string)": "da1b9e08",
        "setExclusivityForAll(address,uint256)": "9a87c691",
        "setURI(uint256,string)": "862440e2",
        "setVote(uint128,uint256,uint256,string,uint256)": "c1b02179",
        "supportsInterface(bytes4)": "01ffc9a7",
        "tokensIssued()": "7c48bbda",
        "tokensOwned(address)": "21cda790",
        "transferOwnership(address)": "f2fde38b",
        "unpause()": "3f4ba83a",
        "uri(uint256)": "0e89341c",
        "verify((address,uint128,bytes),bytes)": "14ce6538",
        "vote((address,uint128,bytes),bytes,uint256)": "69d2fabe",
        "withdraw()": "3ccfd60b"
    },
    "gasEstimates": {
        "creation": {
            "codeDepositCost": "3575800",
            "executionCost": "infinite",
            "totalCost": "infinite"
        },
        "external": {
            "balanceOf(address,uint256)": "2726",
            "balanceOfBatch(address[],uint256[])": "infinite",
            "getBallots(uint128)": "infinite",
            "getDefaultURi()": "infinite",
            "getExclusivityForAll()": "4579",
            "getSale(uint256)": "infinite",
            "getVote()": "infinite",
            "getVoteById(uint128)": "infinite",
            "hasVoted(address,uint128)": "2802",
            "isAllowed(address)": "2663",
            "isApprovedForAll(address,address)": "infinite",
            "mint(uint256,uint256,bytes)": "infinite",
            "mintBatch(uint256[],uint256[],bytes)": "infinite",
            "numberOfPieces(uint256)": "2538",
            "owner()": "2346",
            "pause()": "infinite",
            "paused()": "2388",
            "renounceOwnership()": "infinite",
            "revoke(address)": "infinite",
            "royaltyInfo(uint256,uint256)": "5215",
            "safeBatchTransferFrom(address,address,uint256[],uint256[],bytes)": "infinite",
            "safeTransferFrom(address,address,uint256,uint256,bytes)": "infinite",
            "saleRecord(uint256,(bytes32,uint128,uint8,bytes3,bytes1,bytes1))": "infinite",
            "saleUpdate(uint256,bytes1)": "infinite",
            "setApprovalForAll(address,bool)": "infinite",
            "setDefaultURI(string)": "infinite",
            "setExclusivityForAll(address,uint256)": "infinite",
            "setURI(uint256,string)": "infinite",
            "setVote(uint128,uint256,uint256,string,uint256)": "infinite",
            "supportsInterface(bytes4)": "infinite",
            "tokensIssued()": "infinite",
            "tokensOwned(address)": "infinite",
            "transferOwnership(address)": "infinite",
            "unpause()": "infinite",
            "uri(uint256)": "infinite",
            "verify((address,uint128,bytes),bytes)": "infinite",
            "vote((address,uint128,bytes),bytes,uint256)": "infinite",
            "withdraw()": "infinite"
        },
        "internal": {
            "_afterTokenTransfer(address,address,address,uint256[] memory,uint256[] memory,bytes memory)": "infinite",
            "_beforeTokenTransfer(address,address,address,uint256[] memory,uint256[] memory,bytes memory)": "infinite",
            "_msgSender()": "infinite"
        }
    }
}